{
  "_format": "hh-sol-artifact-1",
  "contractName": "NFTMarketplace",
  "sourceName": "contracts/NFTMarketplace.sol",
  "abi": [
    {
      "inputs": [],
      "stateMutability": "nonpayable",
      "type": "constructor"
    },
    {
      "anonymous": false,
      "inputs": [
        {
          "indexed": true,
          "internalType": "address",
          "name": "account",
          "type": "address"
        },
        {
          "indexed": true,
          "internalType": "address",
          "name": "operator",
          "type": "address"
        },
        {
          "indexed": false,
          "internalType": "bool",
          "name": "approved",
          "type": "bool"
        }
      ],
      "name": "ApprovalForAll",
      "type": "event"
    },
    {
      "anonymous": false,
      "inputs": [
        {
          "indexed": true,
          "internalType": "uint256",
          "name": "tokenId",
          "type": "uint256"
        },
        {
          "indexed": false,
          "internalType": "uint256",
          "name": "offerId",
          "type": "uint256"
        },
        {
          "indexed": true,
          "internalType": "address",
          "name": "buyer",
          "type": "address"
        },
        {
          "indexed": true,
          "internalType": "address",
          "name": "seller",
          "type": "address"
        },
        {
          "indexed": false,
          "internalType": "uint256",
          "name": "price",
          "type": "uint256"
        },
        {
          "indexed": false,
          "internalType": "uint256",
          "name": "amount",
          "type": "uint256"
        }
      ],
      "name": "MarketItemSold",
      "type": "event"
    },
    {
      "anonymous": false,
      "inputs": [
        {
          "indexed": true,
          "internalType": "uint256",
          "name": "tokenId",
          "type": "uint256"
        },
        {
          "indexed": false,
          "internalType": "uint256",
          "name": "offerId",
          "type": "uint256"
        },
        {
          "indexed": true,
          "internalType": "address",
          "name": "seller",
          "type": "address"
        },
        {
          "indexed": false,
          "internalType": "uint256",
          "name": "amount",
          "type": "uint256"
        }
      ],
      "name": "MarketOfferCancelled",
      "type": "event"
    },
    {
      "anonymous": false,
      "inputs": [
        {
          "indexed": true,
          "internalType": "uint256",
          "name": "tokenId",
          "type": "uint256"
        },
        {
          "indexed": false,
          "internalType": "uint256",
          "name": "offerId",
          "type": "uint256"
        },
        {
          "indexed": true,
          "internalType": "address",
          "name": "seller",
          "type": "address"
        },
        {
          "indexed": false,
          "internalType": "uint256",
          "name": "price",
          "type": "uint256"
        },
        {
          "indexed": false,
          "internalType": "uint256",
          "name": "amount",
          "type": "uint256"
        }
      ],
      "name": "MarketOfferCreated",
      "type": "event"
    },
    {
      "anonymous": false,
      "inputs": [
        {
          "indexed": true,
          "internalType": "address",
          "name": "previousOwner",
          "type": "address"
        },
        {
          "indexed": true,
          "internalType": "address",
          "name": "newOwner",
          "type": "address"
        }
      ],
      "name": "OwnershipTransferred",
      "type": "event"
    },
    {
      "anonymous": false,
      "inputs": [
        {
          "indexed": true,
          "internalType": "uint256",
          "name": "tokenId",
          "type": "uint256"
        },
        {
          "indexed": true,
          "internalType": "address",
          "name": "creator",
          "type": "address"
        },
        {
          "indexed": false,
          "internalType": "uint256",
          "name": "totalAmount",
          "type": "uint256"
        },
        {
          "indexed": false,
          "internalType": "bool",
          "name": "isPrivate",
          "type": "bool"
        },
        {
          "indexed": false,
          "internalType": "bool",
          "name": "isFungible",
          "type": "bool"
        },
        {
          "indexed": false,
          "internalType": "uint256",
          "name": "fees",
          "type": "uint256"
        }
      ],
      "name": "TokenMinted",
      "type": "event"
    },
    {
      "anonymous": false,
      "inputs": [
        {
          "indexed": true,
          "internalType": "address",
          "name": "operator",
          "type": "address"
        },
        {
          "indexed": true,
          "internalType": "address",
          "name": "from",
          "type": "address"
        },
        {
          "indexed": true,
          "internalType": "address",
          "name": "to",
          "type": "address"
        },
        {
          "indexed": false,
          "internalType": "uint256[]",
          "name": "ids",
          "type": "uint256[]"
        },
        {
          "indexed": false,
          "internalType": "uint256[]",
          "name": "values",
          "type": "uint256[]"
        }
      ],
      "name": "TransferBatch",
      "type": "event"
    },
    {
      "anonymous": false,
      "inputs": [
        {
          "indexed": true,
          "internalType": "address",
          "name": "operator",
          "type": "address"
        },
        {
          "indexed": true,
          "internalType": "address",
          "name": "from",
          "type": "address"
        },
        {
          "indexed": true,
          "internalType": "address",
          "name": "to",
          "type": "address"
        },
        {
          "indexed": false,
          "internalType": "uint256",
          "name": "id",
          "type": "uint256"
        },
        {
          "indexed": false,
          "internalType": "uint256",
          "name": "value",
          "type": "uint256"
        }
      ],
      "name": "TransferSingle",
      "type": "event"
    },
    {
      "anonymous": false,
      "inputs": [
        {
          "indexed": false,
          "internalType": "string",
          "name": "value",
          "type": "string"
        },
        {
          "indexed": true,
          "internalType": "uint256",
          "name": "id",
          "type": "uint256"
        }
      ],
      "name": "URI",
      "type": "event"
    },
    {
      "inputs": [],
      "name": "airdrop",
      "outputs": [],
      "stateMutability": "payable",
      "type": "function"
    },
    {
      "inputs": [
        {
          "internalType": "address",
          "name": "account",
          "type": "address"
        },
        {
          "internalType": "uint256",
          "name": "id",
          "type": "uint256"
        }
      ],
      "name": "balanceOf",
      "outputs": [
        {
          "internalType": "uint256",
          "name": "",
          "type": "uint256"
        }
      ],
      "stateMutability": "view",
      "type": "function"
    },
    {
      "inputs": [
        {
          "internalType": "address[]",
          "name": "accounts",
          "type": "address[]"
        },
        {
          "internalType": "uint256[]",
          "name": "ids",
          "type": "uint256[]"
        }
      ],
      "name": "balanceOfBatch",
      "outputs": [
        {
          "internalType": "uint256[]",
          "name": "",
          "type": "uint256[]"
        }
      ],
      "stateMutability": "view",
      "type": "function"
    },
    {
      "inputs": [
        {
          "internalType": "uint256",
          "name": "offerId",
          "type": "uint256"
        }
      ],
      "name": "cancelMarketOffer",
      "outputs": [],
      "stateMutability": "nonpayable",
      "type": "function"
    },
    {
      "inputs": [
        {
          "internalType": "uint256",
          "name": "tokenId",
          "type": "uint256"
        },
        {
          "internalType": "uint256",
          "name": "amount",
          "type": "uint256"
        },
        {
          "internalType": "uint256",
          "name": "price",
          "type": "uint256"
        }
      ],
      "name": "createMarketOffer",
      "outputs": [],
      "stateMutability": "nonpayable",
      "type": "function"
    },
    {
      "inputs": [
        {
          "internalType": "uint256",
          "name": "offerId",
          "type": "uint256"
        },
        {
          "internalType": "uint256",
          "name": "amount",
          "type": "uint256"
        }
      ],
      "name": "createMarketSale",
      "outputs": [],
      "stateMutability": "payable",
      "type": "function"
    },
    {
      "inputs": [
        {
          "internalType": "string",
          "name": "tokenURI",
          "type": "string"
        },
        {
          "internalType": "uint256",
          "name": "amount",
          "type": "uint256"
        },
        {
          "internalType": "bool",
          "name": "isPrivate",
          "type": "bool"
        },
        {
          "internalType": "bool",
          "name": "isFungible",
          "type": "bool"
        }
      ],
      "name": "createToken",
      "outputs": [
        {
          "internalType": "uint256",
          "name": "",
          "type": "uint256"
        }
      ],
      "stateMutability": "payable",
      "type": "function"
    },
    {
      "inputs": [
        {
          "internalType": "uint256",
          "name": "tokenType",
          "type": "uint256"
        }
      ],
      "name": "fetchMarketOffers",
      "outputs": [
        {
          "components": [
            {
              "components": [
                {
                  "internalType": "uint256",
                  "name": "tokenId",
                  "type": "uint256"
                },
                {
                  "internalType": "address payable",
                  "name": "creator",
                  "type": "address"
                },
                {
                  "internalType": "uint256",
                  "name": "totalAmount",
                  "type": "uint256"
                },
                {
                  "internalType": "bool",
                  "name": "isPrivate",
                  "type": "bool"
                },
                {
                  "internalType": "bool",
                  "name": "isFungible",
                  "type": "bool"
                }
              ],
              "internalType": "struct NFTMarketplace.MarketItem",
              "name": "item",
              "type": "tuple"
            },
            {
              "internalType": "uint256",
              "name": "offerId",
              "type": "uint256"
            },
            {
              "internalType": "address payable",
              "name": "seller",
              "type": "address"
            },
            {
              "internalType": "uint256",
              "name": "price",
              "type": "uint256"
            },
            {
              "internalType": "uint256",
              "name": "amount",
              "type": "uint256"
            },
            {
              "internalType": "bool",
              "name": "isActive",
              "type": "bool"
            }
          ],
          "internalType": "struct NFTMarketplace.MarketOffer[]",
          "name": "",
          "type": "tuple[]"
        }
      ],
      "stateMutability": "view",
      "type": "function"
    },
    {
      "inputs": [],
      "name": "fetchMyOffers",
      "outputs": [
        {
          "components": [
            {
              "components": [
                {
                  "internalType": "uint256",
                  "name": "tokenId",
                  "type": "uint256"
                },
                {
                  "internalType": "address payable",
                  "name": "creator",
                  "type": "address"
                },
                {
                  "internalType": "uint256",
                  "name": "totalAmount",
                  "type": "uint256"
                },
                {
                  "internalType": "bool",
                  "name": "isPrivate",
                  "type": "bool"
                },
                {
                  "internalType": "bool",
                  "name": "isFungible",
                  "type": "bool"
                }
              ],
              "internalType": "struct NFTMarketplace.MarketItem",
              "name": "item",
              "type": "tuple"
            },
            {
              "internalType": "uint256",
              "name": "offerId",
              "type": "uint256"
            },
            {
              "internalType": "address payable",
              "name": "seller",
              "type": "address"
            },
            {
              "internalType": "uint256",
              "name": "price",
              "type": "uint256"
            },
            {
              "internalType": "uint256",
              "name": "amount",
              "type": "uint256"
            },
            {
              "internalType": "bool",
              "name": "isActive",
              "type": "bool"
            }
          ],
          "internalType": "struct NFTMarketplace.MarketOffer[]",
          "name": "",
          "type": "tuple[]"
        }
      ],
      "stateMutability": "view",
      "type": "function"
    },
    {
      "inputs": [],
      "name": "fetchOwnedItems",
      "outputs": [
        {
          "components": [
            {
              "internalType": "uint256",
              "name": "tokenId",
              "type": "uint256"
            },
            {
              "internalType": "address payable",
              "name": "creator",
              "type": "address"
            },
            {
              "internalType": "uint256",
              "name": "totalAmount",
              "type": "uint256"
            },
            {
              "internalType": "bool",
              "name": "isPrivate",
              "type": "bool"
            },
            {
              "internalType": "bool",
              "name": "isFungible",
              "type": "bool"
            }
          ],
          "internalType": "struct NFTMarketplace.MarketItem[]",
          "name": "",
          "type": "tuple[]"
        }
      ],
      "stateMutability": "view",
      "type": "function"
    },
    {
      "inputs": [],
      "name": "getCreatorFee",
      "outputs": [
        {
          "internalType": "uint256",
          "name": "",
          "type": "uint256"
        }
      ],
      "stateMutability": "view",
      "type": "function"
    },
    {
      "inputs": [],
      "name": "getFungMintingFee",
      "outputs": [
        {
          "internalType": "uint256",
          "name": "",
          "type": "uint256"
        }
      ],
      "stateMutability": "view",
      "type": "function"
    },
    {
      "inputs": [],
      "name": "getMintingFee",
      "outputs": [
        {
          "internalType": "uint256",
          "name": "",
          "type": "uint256"
        }
      ],
      "stateMutability": "view",
      "type": "function"
    },
    {
      "inputs": [
        {
          "internalType": "address",
          "name": "account",
          "type": "address"
        },
        {
          "internalType": "address",
          "name": "operator",
          "type": "address"
        }
      ],
      "name": "isApprovedForAll",
      "outputs": [
        {
          "internalType": "bool",
          "name": "",
          "type": "bool"
        }
      ],
      "stateMutability": "view",
      "type": "function"
    },
    {
      "inputs": [
        {
          "internalType": "address",
          "name": "",
          "type": "address"
        },
        {
          "internalType": "address",
          "name": "",
          "type": "address"
        },
        {
          "internalType": "uint256[]",
          "name": "",
          "type": "uint256[]"
        },
        {
          "internalType": "uint256[]",
          "name": "",
          "type": "uint256[]"
        },
        {
          "internalType": "bytes",
          "name": "",
          "type": "bytes"
        }
      ],
      "name": "onERC1155BatchReceived",
      "outputs": [
        {
          "internalType": "bytes4",
          "name": "",
          "type": "bytes4"
        }
      ],
      "stateMutability": "nonpayable",
      "type": "function"
    },
    {
      "inputs": [
        {
          "internalType": "address",
          "name": "",
          "type": "address"
        },
        {
          "internalType": "address",
          "name": "",
          "type": "address"
        },
        {
          "internalType": "uint256",
          "name": "",
          "type": "uint256"
        },
        {
          "internalType": "uint256",
          "name": "",
          "type": "uint256"
        },
        {
          "internalType": "bytes",
          "name": "",
          "type": "bytes"
        }
      ],
      "name": "onERC1155Received",
      "outputs": [
        {
          "internalType": "bytes4",
          "name": "",
          "type": "bytes4"
        }
      ],
      "stateMutability": "nonpayable",
      "type": "function"
    },
    {
      "inputs": [],
      "name": "owner",
      "outputs": [
        {
          "internalType": "address",
          "name": "",
          "type": "address"
        }
      ],
      "stateMutability": "view",
      "type": "function"
    },
    {
      "inputs": [],
      "name": "renounceOwnership",
      "outputs": [],
      "stateMutability": "nonpayable",
      "type": "function"
    },
    {
      "inputs": [
        {
          "internalType": "address",
          "name": "from",
          "type": "address"
        },
        {
          "internalType": "address",
          "name": "to",
          "type": "address"
        },
        {
          "internalType": "uint256[]",
          "name": "ids",
          "type": "uint256[]"
        },
        {
          "internalType": "uint256[]",
          "name": "amounts",
          "type": "uint256[]"
        },
        {
          "internalType": "bytes",
          "name": "data",
          "type": "bytes"
        }
      ],
      "name": "safeBatchTransferFrom",
      "outputs": [],
      "stateMutability": "nonpayable",
      "type": "function"
    },
    {
      "inputs": [
        {
          "internalType": "address",
          "name": "from",
          "type": "address"
        },
        {
          "internalType": "address",
          "name": "to",
          "type": "address"
        },
        {
          "internalType": "uint256",
          "name": "id",
          "type": "uint256"
        },
        {
          "internalType": "uint256",
          "name": "amount",
          "type": "uint256"
        },
        {
          "internalType": "bytes",
          "name": "data",
          "type": "bytes"
        }
      ],
      "name": "safeTransferFrom",
      "outputs": [],
      "stateMutability": "nonpayable",
      "type": "function"
    },
    {
      "inputs": [
        {
          "internalType": "address",
          "name": "operator",
          "type": "address"
        },
        {
          "internalType": "bool",
          "name": "approved",
          "type": "bool"
        }
      ],
      "name": "setApprovalForAll",
      "outputs": [],
      "stateMutability": "nonpayable",
      "type": "function"
    },
    {
      "inputs": [
        {
          "internalType": "bytes4",
          "name": "interfaceId",
          "type": "bytes4"
        }
      ],
      "name": "supportsInterface",
      "outputs": [
        {
          "internalType": "bool",
          "name": "",
          "type": "bool"
        }
      ],
      "stateMutability": "view",
      "type": "function"
    },
    {
      "inputs": [
        {
          "internalType": "address",
          "name": "newOwner",
          "type": "address"
        }
      ],
      "name": "transferOwnership",
      "outputs": [],
      "stateMutability": "nonpayable",
      "type": "function"
    },
    {
      "inputs": [
        {
          "internalType": "uint256",
          "name": "_creatorFee",
          "type": "uint256"
        }
      ],
      "name": "updateCreatorFee",
      "outputs": [],
      "stateMutability": "nonpayable",
      "type": "function"
    },
    {
      "inputs": [
        {
          "internalType": "uint256",
          "name": "_fungMintingFee",
          "type": "uint256"
        }
      ],
      "name": "updateFungMintingFee",
      "outputs": [],
      "stateMutability": "nonpayable",
      "type": "function"
    },
    {
      "inputs": [
        {
          "internalType": "uint256",
          "name": "_mintingFee",
          "type": "uint256"
        }
      ],
      "name": "updateMintingFee",
      "outputs": [],
      "stateMutability": "nonpayable",
      "type": "function"
    },
    {
      "inputs": [
        {
          "internalType": "uint256",
          "name": "tokenId",
          "type": "uint256"
        }
      ],
      "name": "uri",
      "outputs": [
        {
          "internalType": "string",
          "name": "",
          "type": "string"
        }
      ],
      "stateMutability": "view",
      "type": "function"
    }
  ],
  "bytecode": "0x60a06040819052600060808190526200001b91600491620000d9565b506064600955655af3107a4000600a5564e8d4a51000600b553480156200004157600080fd5b506040805160208101909152600081526200005c816200006e565b50620000683362000087565b620001bc565b805162000083906002906020840190620000d9565b5050565b600380546001600160a01b038381166001600160a01b0319831681179093556040519116919082907f8be0079c531659141344cd1fd0a4f28419497f9722a3daafe3b4186f6b6457e090600090a35050565b828054620000e7906200017f565b90600052602060002090601f0160209004810192826200010b576000855562000156565b82601f106200012657805160ff191683800117855562000156565b8280016001018555821562000156579182015b828111156200015657825182559160200191906001019062000139565b506200016492915062000168565b5090565b5b8082111562000164576000815560010162000169565b600181811c908216806200019457607f821691505b60208210811415620001b657634e487b7160e01b600052602260045260246000fd5b50919050565b613bd080620001cc6000396000f3fe60806040526004361061019b5760003560e01c8063775cdaad116100ec578063c0275a251161008a578063f23a6e6111610064578063f23a6e61146104c8578063f242432a146104f4578063f2fde38b14610514578063f54303401461053457600080fd5b8063c0275a251461043f578063e985e9c51461045f578063f2259a80146104a857600080fd5b8063a1c11ca8116100c6578063a1c11ca8146103b2578063a22cb465146103c5578063b59d88a9146103e5578063bc197c81146103fa57600080fd5b8063775cdaad14610348578063853139151461036a5780638da5cb5b1461038a57600080fd5b80633884d635116101595780634e1273f4116101335780634e1273f4146102d157806359322b37146102fe5780635a5b0f561461031e578063715018a61461033357600080fd5b80633884d63514610289578063426179cb146102915780634a4bbdf9146102b157600080fd5b8062fdd58e146101a057806301ffc9a7146101d357806304a59f0c146102035780630e89341c146102255780631c4c9dad146102525780632eb2c2d614610267575b600080fd5b3480156101ac57600080fd5b506101c06101bb366004612e49565b610547565b6040519081526020015b60405180910390f35b3480156101df57600080fd5b506101f36101ee366004612f3c565b6105de565b60405190151581526020016101ca565b34801561020f57600080fd5b506102186105ef565b6040516101ca91906132a3565b34801561023157600080fd5b50610245610240366004612fec565b61081a565b6040516101ca919061336b565b34801561025e57600080fd5b50600b546101c0565b34801561027357600080fd5b50610287610282366004612d19565b610825565b005b6102876108bc565b34801561029d57600080fd5b506102876102ac366004612fec565b6110fc565b3480156102bd57600080fd5b506102876102cc366004612fec565b611210565b3480156102dd57600080fd5b506102f16102ec366004612e72565b61123f565b6040516101ca9190613333565b34801561030a57600080fd5b50610287610319366004612fec565b6113a0565b34801561032a57600080fd5b506009546101c0565b34801561033f57600080fd5b506102876113cf565b34801561035457600080fd5b5061035d611405565b6040516101ca9190613255565b34801561037657600080fd5b50610287610385366004613025565b6115a0565b34801561039657600080fd5b506003546040516001600160a01b0390911681526020016101ca565b6102876103c0366004613004565b611846565b3480156103d157600080fd5b506102876103e0366004612e20565b611a53565b3480156103f157600080fd5b50600a546101c0565b34801561040657600080fd5b50610426610415366004612d19565b63bc197c8160e01b95945050505050565b6040516001600160e01b031990911681526020016101ca565b34801561044b57600080fd5b5061028761045a366004612fec565b611a62565b34801561046b57600080fd5b506101f361047a366004612ce7565b6001600160a01b03918216600090815260016020908152604080832093909416825291909152205460ff1690565b3480156104b457600080fd5b506102186104c3366004612fec565b611a91565b3480156104d457600080fd5b506104266104e3366004612dbe565b63f23a6e6160e01b95945050505050565b34801561050057600080fd5b5061028761050f366004612dbe565b611d36565b34801561052057600080fd5b5061028761052f366004612ccd565b611dbd565b6101c0610542366004612f74565b611e58565b60006001600160a01b0383166105b85760405162461bcd60e51b815260206004820152602b60248201527f455243313135353a2062616c616e636520717565727920666f7220746865207a60448201526a65726f206164647265737360a81b60648201526084015b60405180910390fd5b506000908152602081815260408083206001600160a01b03949094168352929052205490565b60006105e98261202a565b92915050565b606060006105fc60075490565b905060008060015b83811161066a576000818152600d602052604090206008015460ff16801561064557506000818152600d60205260409020600501546001600160a01b031633145b15610658576106556001836134ad565b91505b80610662816135b2565b915050610604565b506000816001600160401b0381111561069357634e487b7160e01b600052604160045260246000fd5b6040519080825280602002602001820160405280156106cc57816020015b6106b9612abd565b8152602001906001900390816106b15790505b50905060015b848111610811576000818152600d602052604090206008015460ff16801561071357506000818152600d60205260409020600501546001600160a01b031633145b156107ff576000818152600d6020908152604091829020825161016081018452815460c0820190815260018301546001600160a01b0390811660e0840152600284015461010080850191909152600385015460ff80821615156101208701529190048116151561014085015291835260048401549483019490945260058301549093169381019390935260068101546060840152600781015460808401526008810154909116151560a083015283519091908490879081106107e557634e487b7160e01b600052603260045260246000fd5b60209081029190910101526107fb6001866134ad565b9450505b80610809816135b2565b9150506106d2565b50949350505050565b60606105e98261204f565b6001600160a01b0385163314806108415750610841853361047a565b6108a85760405162461bcd60e51b815260206004820152603260248201527f455243313135353a207472616e736665722063616c6c6572206973206e6f74206044820152711bdddb995c881b9bdc88185c1c1c9bdd995960721b60648201526084016105af565b6108b5858585858561212f565b5050505050565b6003546001600160a01b031633146108e65760405162461bcd60e51b81526004016105af90613455565b60006040518061022001604052806040518060800160405280604a81526020016139df604a913981526020016040518060800160405280604a8152602001613a73604a913981526020016040518060800160405280604a8152602001613745604a913981526020016040518060800160405280604a8152602001613823604a913981526020016040518060800160405280604a8152602001613b51604a913981526020016040518060800160405280604a81526020016137d9604a913981526020016040518060800160405280604a8152602001613a29604a913981526020016040518060800160405280604a81526020016136fb604a913981526020016040518060800160405280604a8152602001613abd604a913981526020016040518060800160405280604a8152602001613901604a913981526020016040518060800160405280604a815260200161386d604a913981526020016040518060800160405280604a815260200161394b604a913981526020016040518060800160405280604a81526020016136b1604a913981526020016040518060800160405280604a81526020016138b7604a913981526020016040518060800160405280604a815260200161378f604a913981526020016040518060800160405280604a8152602001613b07604a913981526020016040518060800160405280604a8152602001613995604a913981525090506000604051806102200160405280602362ffffff168152602001601962ffffff168152602001602862ffffff168152602001603262ffffff168152602001602362ffffff168152602001601462ffffff168152602001606462ffffff168152602001603262ffffff168152602001602362ffffff168152602001602d62ffffff168152602001603c62ffffff168152602001603762ffffff168152602001604662ffffff168152602001603262ffffff168152602001620f424062ffffff168152602001620186a062ffffff168152602001620f424062ffffff1681525090506000604051806102200160405280600015151515815260200160001515151581526020016000151515158152602001600015151515815260200160001515151581526020016000151515158152602001600015151515815260200160001515151581526020016000151515158152602001600015151515815260200160011515151581526020016001151515158152602001600115151515815260200160011515151581526020016000151515158152602001600015151515815260200160001515151581525090506000604051806102200160405280600015151515815260200160001515151581526020016000151515158152602001600015151515815260200160001515151581526020016000151515158152602001600015151515815260200160001515151581526020016000151515158152602001600015151515815260200160001515151581526020016000151515158152602001600015151515815260200160001515151581526020016001151515158152602001600115151515815260200160011515151581525090506000604051806102200160405280600f62ffffff168152602001600562ffffff168152602001601962ffffff168152602001602862ffffff168152602001601962ffffff168152602001600f62ffffff168152602001605062ffffff168152602001601962ffffff168152602001601962ffffff168152602001602862ffffff168152602001601e62ffffff168152602001602d62ffffff168152602001603c62ffffff168152602001602d62ffffff168152602001620c350062ffffff168152602001620124f862ffffff168152602001620dbba062ffffff1681525090506000604051806102200160405280662386f26fc100006001600160401b0316815260200166470de4df8200006001600160401b0316815260200166354a6ba7a180006001600160401b031681526020016618de76816d80006001600160401b031681526020016658d15e176280006001600160401b0316815260200166038d7ea4c680006001600160401b0316815260200166071afd498d00006001600160401b031681526020016608e1bc9bf040006001600160401b0316815260200166038d7ea4c680006001600160401b031681526020016613e52b9abe00006001600160401b0316815260200167016345785d8a00006001600160401b0316815260200166c3663566a580006001600160401b03168152602001670214e8348c4f00006001600160401b0316815260200167016345785d8a00006001600160401b031681526020016509184e72a0006001600160401b03168152602001650ae9f7bcc0006001600160401b031681526020016509184e72a0006001600160401b0316815250905060005b60118110156110f357611075878260118110610ff757634e487b7160e01b600052603260045260246000fd5b602002015187836011811061101c57634e487b7160e01b600052603260045260246000fd5b602002015162ffffff1687846011811061104657634e487b7160e01b600052603260045260246000fd5b602002015187856011811061106b57634e487b7160e01b600052603260045260246000fd5b6020020151611e58565b506110e16110848260016134ad565b8483601181106110a457634e487b7160e01b600052603260045260246000fd5b602002015162ffffff168484601181106110ce57634e487b7160e01b600052603260045260246000fd5b60200201516001600160401b03166115a0565b806110eb816135b2565b915050610fcb565b50505050505050565b6000818152600d602052604090208054600582015460079092015490916001600160a01b03169060603383146111805760405162461bcd60e51b815260206004820152602360248201527f4f6e6c79207468652073656c6c65722063616e2063616e63656c207468652073604482015262616c6560e81b60648201526084016105af565b61118d3033868585612328565b6000858152600d6020526040812060078101919091556005810180546001600160a01b03191690556008908101805460ff191690556111cb90612452565b6040805186815260208101849052339186917f3fdca928b1865603b1e7482f642b63f4808e0cd3272a0a0e974ddcee373e893891015b60405180910390a35050505050565b6003546001600160a01b0316331461123a5760405162461bcd60e51b81526004016105af90613455565b600955565b606081518351146112a45760405162461bcd60e51b815260206004820152602960248201527f455243313135353a206163636f756e747320616e6420696473206c656e677468604482015268040dad2e6dac2e8c6d60bb1b60648201526084016105af565b600083516001600160401b038111156112cd57634e487b7160e01b600052604160045260246000fd5b6040519080825280602002602001820160405280156112f6578160200160208202803683370190505b50905060005b84518110156113985761135d85828151811061132857634e487b7160e01b600052603260045260246000fd5b602002602001015185838151811061135057634e487b7160e01b600052603260045260246000fd5b6020026020010151610547565b82828151811061137d57634e487b7160e01b600052603260045260246000fd5b6020908102919091010152611391816135b2565b90506112fc565b509392505050565b6003546001600160a01b031633146113ca5760405162461bcd60e51b81526004016105af90613455565b600b55565b6003546001600160a01b031633146113f95760405162461bcd60e51b81526004016105af90613455565b61140360006124a9565b565b6060600061141260065490565b905060008060015b83811161145357600061142d3383610547565b11156114415761143e6001846134ad565b92505b8061144b816135b2565b91505061141a565b506000826001600160401b0381111561147c57634e487b7160e01b600052604160045260246000fd5b6040519080825280602002602001820160405280156114d557816020015b6040805160a08101825260008082526020808301829052928201819052606082018190526080820152825260001990920191018161149a5790505b50905060015b8481116108115760006114ee3383610547565b111561158e576000818152600c6020908152604091829020825160a0810184528154815260018201546001600160a01b031692810192909252600281015492820192909252600382015460ff808216151560608401526101009091041615156080820152835184908690811061157457634e487b7160e01b600052603260045260246000fd5b602090810291909101015261158a6001856134ad565b9350505b80611598816135b2565b9150506114db565b600081116115f05760405162461bcd60e51b815260206004820152601c60248201527f5072696365206d757374206265206174206c656173742031207765690000000060448201526064016105af565b60606115ff3330868685612328565b61160d600780546001019055565b600061161860075490565b90506040518060c00160405280600c60008881526020019081526020016000206040518060a0016040529081600082015481526020016001820160009054906101000a90046001600160a01b03166001600160a01b03166001600160a01b03168152602001600282015481526020016003820160009054906101000a900460ff161515151581526020016003820160019054906101000a900460ff1615151515815250508152602001828152602001336001600160a01b0316815260200184815260200185815260200160011515815250600d60008381526020019081526020016000206000820151816000016000820151816000015560208201518160010160006101000a8154816001600160a01b0302191690836001600160a01b031602179055506040820151816002015560608201518160030160006101000a81548160ff02191690831515021790555060808201518160030160016101000a81548160ff02191690831515021790555050506020820151816004015560408201518160050160006101000a8154816001600160a01b0302191690836001600160a01b03160217905550606082015181600601556080820151816007015560a08201518160080160006101000a81548160ff021916908315150217905550905050611804600880546001019055565b6040805182815260208101859052908101859052339086907f5018fe313dfa61e452b0230bbc0edeb12208931a9fea00bc5d3ad3e6599f7f3490606001611201565b6000828152600d602052604081208054600182015460069092015490926001600160a01b03909216919061187b9085906134e5565b905060006009548261188d91906134c5565b6000878152600d6020526040812060058101546007909101549293506001600160a01b0316916118be908890613504565b905060606118cc84866134ad565b34101561192e5760405162461bcd60e51b815260206004820152602a60248201527f496e73756666696369656e742076616c75652073656e7420746f20637265617460448201526965207468652073616c6560b01b60648201526084016105af565b61193b3033898b85612328565b6040516001600160a01b0387169085156108fc029086906000818181858888f19350505050158015611971573d6000803e3d6000fd5b506040516001600160a01b0384169086156108fc029087906000818181858888f193505050501580156119a8573d6000803e3d6000fd5b506000898152600d60205260409020600701829055816119f8576000898152600d602052604090206005810180546001600160a01b03191690556008908101805460ff191690556119f890612452565b604080518a8152602081018790529081018990526001600160a01b03841690339089907f46e3967d9aef98d74780ace0931f6e82e00d91621c0b6c95867374a16047f9099060600160405180910390a4505050505050505050565b611a5e3383836124fb565b5050565b6003546001600160a01b03163314611a8c5760405162461bcd60e51b81526004016105af90613455565b600a55565b60606000611a9d612abd565b6000611aa860085490565b6001600160401b03811115611acd57634e487b7160e01b600052604160045260246000fd5b604051908082528060200260200182016040528015611b0657816020015b611af3612abd565b815260200190600190039081611aeb5790505b50905060015b6007548111610811576000818152600d6020908152604091829020825161016081018452815460c0820190815260018301546001600160a01b0390811660e0840152600284015461010080850191909152600385015460ff80821615156101208701529190048116151561014085015291835260048401549483019490945260058301549093169381019390935260068101546060840152600781015460808401526008015416151560a0820152925085158015611bcb57508260a001515b8015611bda5750825160600151155b8015611be95750825160800151155b15611c2c5782828581518110611c0f57634e487b7160e01b600052603260045260246000fd5b6020908102919091010152611c256001856134ad565b9350611d24565b856001148015611c3d57508260a001515b8015611c4b57508251606001515b8015611c5a5750825160800151155b15611c805782828581518110611c0f57634e487b7160e01b600052603260045260246000fd5b856002148015611c9157508260a001515b8015611ca05750825160600151155b8015611cae57508251608001515b15611cd45782828581518110611c0f57634e487b7160e01b600052603260045260246000fd5b856003148015611ce557508260a001515b15611d245782828581518110611d0b57634e487b7160e01b600052603260045260246000fd5b6020908102919091010152611d216001856134ad565b93505b80611d2e816135b2565b915050611b0c565b6001600160a01b038516331480611d525750611d52853361047a565b611db05760405162461bcd60e51b815260206004820152602960248201527f455243313135353a2063616c6c6572206973206e6f74206f776e6572206e6f7260448201526808185c1c1c9bdd995960ba1b60648201526084016105af565b6108b58585858585612328565b6003546001600160a01b03163314611de75760405162461bcd60e51b81526004016105af90613455565b6001600160a01b038116611e4c5760405162461bcd60e51b815260206004820152602660248201527f4f776e61626c653a206e6577206f776e657220697320746865207a65726f206160448201526564647265737360d01b60648201526084016105af565b611e55816124a9565b50565b6000808215611e7557600b54611e6e90866134e5565b9050611e85565b600a54611e8290866134e5565b90505b80341015611ed55760405162461bcd60e51b815260206004820152601f60248201527f496e73756666696369656e74206d696e74696e672076616c75652073656e740060448201526064016105af565b6003546040516001600160a01b039091169082156108fc029083906000818181858888f19350505050158015611f0f573d6000803e3d6000fd5b50611f1e600680546001019055565b6000611f2960065490565b90506060611f39338389846125dc565b611f4382896126e7565b6040805160a0810182528381523360208083018281528385018c81528b151560608087018281528d15156080808a0182815260008e8152600c8a528c90209a518b55965160018b0180546001600160a01b0319166001600160a01b03909216919091179055945160028a0155905160039098018054955161ffff1990961698151561ff00191698909817610100951515959095029490941790965586518e815293840152948201529182018690529184917faa6f015c9b3821c211517250bad94098ee0848b9c60c383145315e7f97b4da98910160405180910390a3509695505050505050565b60006001600160e01b03198216630271189760e51b14806105e957506105e98261274b565b60008181526005602052604081208054606092919061206d9061354b565b80601f01602080910402602001604051908101604052809291908181526020018280546120999061354b565b80156120e65780601f106120bb576101008083540402835291602001916120e6565b820191906000526020600020905b8154815290600101906020018083116120c957829003601f168201915b505050505090506000815111612104576120ff8361279b565b612128565b60048160405160200161211892919061310c565b6040516020818303038152906040525b9392505050565b81518351146121915760405162461bcd60e51b815260206004820152602860248201527f455243313135353a2069647320616e6420616d6f756e7473206c656e677468206044820152670dad2e6dac2e8c6d60c31b60648201526084016105af565b6001600160a01b0384166121b75760405162461bcd60e51b81526004016105af906133c6565b3360005b84518110156122ba5760008582815181106121e657634e487b7160e01b600052603260045260246000fd5b60200260200101519050600085838151811061221257634e487b7160e01b600052603260045260246000fd5b602090810291909101810151600084815280835260408082206001600160a01b038e1683529093529190912054909150818110156122625760405162461bcd60e51b81526004016105af9061340b565b6000838152602081815260408083206001600160a01b038e8116855292528083208585039055908b1682528120805484929061229f9084906134ad565b92505081905550505050806122b3906135b2565b90506121bb565b50846001600160a01b0316866001600160a01b0316826001600160a01b03167f4a39dc06d4c0dbc64b70af90fd698a233a518aa5d07e595d983b8c0526c8f7fb878760405161230a929190613346565b60405180910390a461232081878787878761282f565b505050505050565b6001600160a01b03841661234e5760405162461bcd60e51b81526004016105af906133c6565b33600061235a8561299a565b905060006123678561299a565b90506000868152602081815260408083206001600160a01b038c168452909152902054858110156123aa5760405162461bcd60e51b81526004016105af9061340b565b6000878152602081815260408083206001600160a01b038d8116855292528083208985039055908a168252812080548892906123e79084906134ad565b909155505060408051888152602081018890526001600160a01b03808b16928c821692918816917fc3d58168c5ae7397731d063d5bbf3d657854427343f4c083240f7aacaa2d0f62910160405180910390a4612447848a8a8a8a8a6129f3565b505050505050505050565b8054806124a15760405162461bcd60e51b815260206004820152601b60248201527f436f756e7465723a2064656372656d656e74206f766572666c6f77000000000060448201526064016105af565b600019019055565b600380546001600160a01b038381166001600160a01b0319831681179093556040519116919082907f8be0079c531659141344cd1fd0a4f28419497f9722a3daafe3b4186f6b6457e090600090a35050565b816001600160a01b0316836001600160a01b0316141561256f5760405162461bcd60e51b815260206004820152602960248201527f455243313135353a2073657474696e6720617070726f76616c20737461747573604482015268103337b91039b2b63360b91b60648201526084016105af565b6001600160a01b03838116600081815260016020908152604080832094871680845294825291829020805460ff191686151590811790915591519182527f17307eab39ab6107e8899845ad3d59bd9653f200f220920489ca2b5937696c31910160405180910390a3505050565b6001600160a01b03841661263c5760405162461bcd60e51b815260206004820152602160248201527f455243313135353a206d696e7420746f20746865207a65726f206164647265736044820152607360f81b60648201526084016105af565b3360006126488561299a565b905060006126558561299a565b90506000868152602081815260408083206001600160a01b038b168452909152812080548792906126879084906134ad565b909155505060408051878152602081018790526001600160a01b03808a1692600092918716917fc3d58168c5ae7397731d063d5bbf3d657854427343f4c083240f7aacaa2d0f62910160405180910390a46110f3836000898989896129f3565b6000828152600560209081526040909120825161270692840190612b18565b50817f6bb7ff708619ba0610cba295a58592e0451dee2622938c8755667688daf3529b6127328461081a565b60405161273f919061336b565b60405180910390a25050565b60006001600160e01b03198216636cdb3d1360e11b148061277c57506001600160e01b031982166303a24d0760e21b145b806105e957506301ffc9a760e01b6001600160e01b03198316146105e9565b6060600280546127aa9061354b565b80601f01602080910402602001604051908101604052809291908181526020018280546127d69061354b565b80156128235780601f106127f857610100808354040283529160200191612823565b820191906000526020600020905b81548152906001019060200180831161280657829003601f168201915b50505050509050919050565b6001600160a01b0384163b156123205760405163bc197c8160e01b81526001600160a01b0385169063bc197c819061287390899089908890889088906004016131b2565b602060405180830381600087803b15801561288d57600080fd5b505af19250505080156128bd575060408051601f3d908101601f191682019092526128ba91810190612f58565b60015b61296a576128c96135f9565b806308c379a0141561290357506128de613611565b806128e95750612905565b8060405162461bcd60e51b81526004016105af919061336b565b505b60405162461bcd60e51b815260206004820152603460248201527f455243313135353a207472616e7366657220746f206e6f6e20455243313135356044820152732932b1b2b4bb32b91034b6b83632b6b2b73a32b960611b60648201526084016105af565b6001600160e01b0319811663bc197c8160e01b146110f35760405162461bcd60e51b81526004016105af9061337e565b604080516001808252818301909252606091600091906020808301908036833701905050905082816000815181106129e257634e487b7160e01b600052603260045260246000fd5b602090810291909101015292915050565b6001600160a01b0384163b156123205760405163f23a6e6160e01b81526001600160a01b0385169063f23a6e6190612a379089908990889088908890600401613210565b602060405180830381600087803b158015612a5157600080fd5b505af1925050508015612a81575060408051601f3d908101601f19168201909252612a7e91810190612f58565b60015b612a8d576128c96135f9565b6001600160e01b0319811663f23a6e6160e01b146110f35760405162461bcd60e51b81526004016105af9061337e565b6040805161016081018252600060c0820181815260e08301829052610100830182905261012083018290526101408301829052825260208201819052918101829052606081018290526080810182905260a081019190915290565b828054612b249061354b565b90600052602060002090601f016020900481019282612b465760008555612b8c565b82601f10612b5f57805160ff1916838001178555612b8c565b82800160010185558215612b8c579182015b82811115612b8c578251825591602001919060010190612b71565b50612b98929150612b9c565b5090565b5b80821115612b985760008155600101612b9d565b60006001600160401b03831115612bca57612bca6135e3565b604051612be1601f8501601f191660200182613586565b809150838152848484011115612bf657600080fd5b83836020830137600060208583010152509392505050565b80356001600160a01b0381168114612c2557600080fd5b919050565b600082601f830112612c3a578081fd5b81356020612c478261348a565b604051612c548282613586565b8381528281019150858301600585901b87018401881015612c73578586fd5b855b85811015612c9157813584529284019290840190600101612c75565b5090979650505050505050565b80358015158114612c2557600080fd5b600082601f830112612cbe578081fd5b61212883833560208501612bb1565b600060208284031215612cde578081fd5b61212882612c0e565b60008060408385031215612cf9578081fd5b612d0283612c0e565b9150612d1060208401612c0e565b90509250929050565b600080600080600060a08688031215612d30578081fd5b612d3986612c0e565b9450612d4760208701612c0e565b935060408601356001600160401b0380821115612d62578283fd5b612d6e89838a01612c2a565b94506060880135915080821115612d83578283fd5b612d8f89838a01612c2a565b93506080880135915080821115612da4578283fd5b50612db188828901612cae565b9150509295509295909350565b600080600080600060a08688031215612dd5578081fd5b612dde86612c0e565b9450612dec60208701612c0e565b9350604086013592506060860135915060808601356001600160401b03811115612e14578182fd5b612db188828901612cae565b60008060408385031215612e32578182fd5b612e3b83612c0e565b9150612d1060208401612c9e565b60008060408385031215612e5b578182fd5b612e6483612c0e565b946020939093013593505050565b60008060408385031215612e84578182fd5b82356001600160401b0380821115612e9a578384fd5b818501915085601f830112612ead578384fd5b81356020612eba8261348a565b604051612ec78282613586565b8381528281019150858301600585901b870184018b1015612ee6578889fd5b8896505b84871015612f0f57612efb81612c0e565b835260019690960195918301918301612eea565b5096505086013592505080821115612f25578283fd5b50612f3285828601612c2a565b9150509250929050565b600060208284031215612f4d578081fd5b81356121288161369a565b600060208284031215612f69578081fd5b81516121288161369a565b60008060008060808587031215612f89578182fd5b84356001600160401b03811115612f9e578283fd5b8501601f81018713612fae578283fd5b612fbd87823560208401612bb1565b94505060208501359250612fd360408601612c9e565b9150612fe160608601612c9e565b905092959194509250565b600060208284031215612ffd578081fd5b5035919050565b60008060408385031215613016578182fd5b50508035926020909101359150565b600080600060608486031215613039578081fd5b505081359360208301359350604090920135919050565b6000815180845260208085019450808401835b8381101561307f57815187529582019590820190600101613063565b509495945050505050565b600081518084526130a281602086016020860161351b565b601f01601f19169290920160200192915050565b600081516130c881856020860161351b565b9290920192915050565b805182526020808201516001600160a01b031690830152604080820151908301526060808201511515908301526080908101511515910152565b600080845482600182811c91508083168061312857607f831692505b602080841082141561314857634e487b7160e01b87526022600452602487fd5b81801561315c576001811461316d57613199565b60ff19861689528489019650613199565b60008b815260209020885b868110156131915781548b820152908501908301613178565b505084890196505b5050505050506131a981856130b6565b95945050505050565b6001600160a01b0386811682528516602082015260a0604082018190526000906131de90830186613050565b82810360608401526131f08186613050565b90508281036080840152613204818561308a565b98975050505050505050565b6001600160a01b03868116825285166020820152604081018490526060810183905260a06080820181905260009061324a9083018461308a565b979650505050505050565b6020808252825182820181905260009190848201906040850190845b81811015613297576132848385516130d2565b9284019260a09290920191600101613271565b50909695505050505050565b602080825282518282018190526000919060409081850190868401855b828110156133265781516132d58582516130d2565b8087015160a086810191909152868201516001600160a01b031660c0870152606082015160e087015260808201516101008701520151151561012085015261014090930192908501906001016132c0565b5091979650505050505050565b6020815260006121286020830184613050565b6040815260006133596040830185613050565b82810360208401526131a98185613050565b602081526000612128602083018461308a565b60208082526028908201527f455243313135353a204552433131353552656365697665722072656a656374656040820152676420746f6b656e7360c01b606082015260800190565b60208082526025908201527f455243313135353a207472616e7366657220746f20746865207a65726f206164604082015264647265737360d81b606082015260800190565b6020808252602a908201527f455243313135353a20696e73756666696369656e742062616c616e636520666f60408201526939103a3930b739b332b960b11b606082015260800190565b6020808252818101527f4f776e61626c653a2063616c6c6572206973206e6f7420746865206f776e6572604082015260600190565b60006001600160401b038211156134a3576134a36135e3565b5060051b60200190565b600082198211156134c0576134c06135cd565b500190565b6000826134e057634e487b7160e01b81526012600452602481fd5b500490565b60008160001904831182151516156134ff576134ff6135cd565b500290565b600082821015613516576135166135cd565b500390565b60005b8381101561353657818101518382015260200161351e565b83811115613545576000848401525b50505050565b600181811c9082168061355f57607f821691505b6020821081141561358057634e487b7160e01b600052602260045260246000fd5b50919050565b601f8201601f191681016001600160401b03811182821017156135ab576135ab6135e3565b6040525050565b60006000198214156135c6576135c66135cd565b5060010190565b634e487b7160e01b600052601160045260246000fd5b634e487b7160e01b600052604160045260246000fd5b600060033d111561360e57600481823e5160e01c5b90565b600060443d101561361f5790565b6040516003193d81016004833e81513d6001600160401b03816024840111818411171561364e57505050505090565b82850191508151818111156136665750505050505090565b843d87010160208285010111156136805750505050505090565b61368f60208286010187613586565b509095945050505050565b6001600160e01b031981168114611e5557600080fdfe68747470733a2f2f697066732e696e667572612e696f2f697066732f516d5468585454784d6f6a384e64614e4e634678537861636e675258483458746779526d514d4a335a334468357168747470733a2f2f697066732e696e667572612e696f2f697066732f516d5279746a476236633870453532334c35327638483145446941446965397879796936656f323836394c77715068747470733a2f2f697066732e696e667572612e696f2f697066732f516d547072516346424b56444d664b33735444413468784e79436d62537a586466365a67544d797057463735466668747470733a2f2f697066732e696e667572612e696f2f697066732f516d5169393776456d4651554237455a76336a6d39615a48754656776e584769727746634558784c6d784275315568747470733a2f2f697066732e696e667572612e696f2f697066732f516d51706a4a41716247793345374d3379464c394b795a543957456f57664e33544568507279527179697071457268747470733a2f2f697066732e696e667572612e696f2f697066732f516d6167424a6174577559675368383733776b3143347839636937545a53364d73554353365957484a6b4d68396d68747470733a2f2f697066732e696e667572612e696f2f697066732f516d50554b737a51344e55705a626d4378713144586a4352735372416f706a50365970686d66484c3478736e395668747470733a2f2f697066732e696e667572612e696f2f697066732f516d57464a486d5a46356f4e684c5a58474c5a667a686a4e6247696d73353641376d4862576d77364a445537773268747470733a2f2f697066732e696e667572612e696f2f697066732f516d61526e646f6d385232574d324b77365035374b6169706e596f587550644348684355614d374b524a5656746a68747470733a2f2f697066732e696e667572612e696f2f697066732f516d597575534e794875517154714c785855374c77566569707133723644476a59686a35354b51394b6f6a4a6d7268747470733a2f2f697066732e696e667572612e696f2f697066732f516d535556617a5563704856444e76694e7a73667543746b577174324465714a32705638446a6d7a537a6576357568747470733a2f2f697066732e696e667572612e696f2f697066732f516d6468567667736750633346434a454a6454334b6165707a69504b6933646b79656f36357768367a4d574d6e4168747470733a2f2f697066732e696e667572612e696f2f697066732f516d665674417054684151677a7a6262516d437262757845396978334d56534d714b4b79674635784e6d6977613468747470733a2f2f697066732e696e667572612e696f2f697066732f516d55353656504b5872564b4e775a57354a6a4d4e4a5542594b566d3866785a776f6f79545353526e514143537668747470733a2f2f697066732e696e667572612e696f2f697066732f516d534152564156787353753979587248416376734d676934397a565a4e394147785574706459756d634c65777168747470733a2f2f697066732e696e667572612e696f2f697066732f516d5951713369483236525a37674555377a4b7277757541627a776f6d6d366b4c45635378464c38684c6170627568747470733a2f2f697066732e696e667572612e696f2f697066732f516d5a533733335065726d70376d42513353415a44454a35585a6731436237623362697454637566454352426261a26469706673582212201cbcff9df89a342321caaa24fb2dbbf8f1e4f27101395eee799573c372376dec64736f6c63430008040033",
  "linkReferences": {},
  "deployedLinkReferences": {}
}