{
  "_format": "hh-sol-artifact-1",
  "contractName": "NFTMarketplace",
  "sourceName": "contracts/NFTMarketplace.sol",
  "abi": [
    {
      "inputs": [],
      "stateMutability": "nonpayable",
      "type": "constructor"
    },
    {
      "anonymous": false,
      "inputs": [
        {
          "indexed": true,
          "internalType": "address",
          "name": "account",
          "type": "address"
        },
        {
          "indexed": true,
          "internalType": "address",
          "name": "operator",
          "type": "address"
        },
        {
          "indexed": false,
          "internalType": "bool",
          "name": "approved",
          "type": "bool"
        }
      ],
      "name": "ApprovalForAll",
      "type": "event"
    },
    {
      "anonymous": false,
      "inputs": [
        {
          "indexed": true,
          "internalType": "uint256",
          "name": "tokenId",
          "type": "uint256"
        },
        {
          "indexed": false,
          "internalType": "uint256",
          "name": "offerId",
          "type": "uint256"
        },
        {
          "indexed": false,
          "internalType": "address",
          "name": "buyer",
          "type": "address"
        },
        {
          "indexed": false,
          "internalType": "address",
          "name": "seller",
          "type": "address"
        },
        {
          "indexed": false,
          "internalType": "uint256",
          "name": "price",
          "type": "uint256"
        },
        {
          "indexed": false,
          "internalType": "uint256",
          "name": "amount",
          "type": "uint256"
        }
      ],
      "name": "MarketItemSold",
      "type": "event"
    },
    {
      "anonymous": false,
      "inputs": [
        {
          "indexed": true,
          "internalType": "uint256",
          "name": "tokenId",
          "type": "uint256"
        },
        {
          "indexed": false,
          "internalType": "uint256",
          "name": "offerId",
          "type": "uint256"
        },
        {
          "indexed": false,
          "internalType": "address",
          "name": "seller",
          "type": "address"
        },
        {
          "indexed": false,
          "internalType": "uint256",
          "name": "amount",
          "type": "uint256"
        }
      ],
      "name": "MarketOfferCancelled",
      "type": "event"
    },
    {
      "anonymous": false,
      "inputs": [
        {
          "indexed": true,
          "internalType": "uint256",
          "name": "tokenId",
          "type": "uint256"
        },
        {
          "indexed": false,
          "internalType": "uint256",
          "name": "offerId",
          "type": "uint256"
        },
        {
          "indexed": false,
          "internalType": "address",
          "name": "seller",
          "type": "address"
        },
        {
          "indexed": false,
          "internalType": "uint256",
          "name": "price",
          "type": "uint256"
        },
        {
          "indexed": false,
          "internalType": "uint256",
          "name": "amount",
          "type": "uint256"
        }
      ],
      "name": "MarketOfferCreated",
      "type": "event"
    },
    {
      "anonymous": false,
      "inputs": [
        {
          "indexed": true,
          "internalType": "address",
          "name": "previousOwner",
          "type": "address"
        },
        {
          "indexed": true,
          "internalType": "address",
          "name": "newOwner",
          "type": "address"
        }
      ],
      "name": "OwnershipTransferred",
      "type": "event"
    },
    {
      "anonymous": false,
      "inputs": [
        {
          "indexed": true,
          "internalType": "uint256",
          "name": "tokenId",
          "type": "uint256"
        },
        {
          "indexed": false,
          "internalType": "address",
          "name": "creator",
          "type": "address"
        },
        {
          "indexed": false,
          "internalType": "uint256",
          "name": "totalAmount",
          "type": "uint256"
        },
        {
          "indexed": false,
          "internalType": "bool",
          "name": "isPrivate",
          "type": "bool"
        },
        {
          "indexed": false,
          "internalType": "bool",
          "name": "isFungible",
          "type": "bool"
        },
        {
          "indexed": false,
          "internalType": "uint256",
          "name": "fees",
          "type": "uint256"
        }
      ],
      "name": "TokenMinted",
      "type": "event"
    },
    {
      "anonymous": false,
      "inputs": [
        {
          "indexed": true,
          "internalType": "address",
          "name": "operator",
          "type": "address"
        },
        {
          "indexed": true,
          "internalType": "address",
          "name": "from",
          "type": "address"
        },
        {
          "indexed": true,
          "internalType": "address",
          "name": "to",
          "type": "address"
        },
        {
          "indexed": false,
          "internalType": "uint256[]",
          "name": "ids",
          "type": "uint256[]"
        },
        {
          "indexed": false,
          "internalType": "uint256[]",
          "name": "values",
          "type": "uint256[]"
        }
      ],
      "name": "TransferBatch",
      "type": "event"
    },
    {
      "anonymous": false,
      "inputs": [
        {
          "indexed": true,
          "internalType": "address",
          "name": "operator",
          "type": "address"
        },
        {
          "indexed": true,
          "internalType": "address",
          "name": "from",
          "type": "address"
        },
        {
          "indexed": true,
          "internalType": "address",
          "name": "to",
          "type": "address"
        },
        {
          "indexed": false,
          "internalType": "uint256",
          "name": "id",
          "type": "uint256"
        },
        {
          "indexed": false,
          "internalType": "uint256",
          "name": "value",
          "type": "uint256"
        }
      ],
      "name": "TransferSingle",
      "type": "event"
    },
    {
      "anonymous": false,
      "inputs": [
        {
          "indexed": false,
          "internalType": "string",
          "name": "value",
          "type": "string"
        },
        {
          "indexed": true,
          "internalType": "uint256",
          "name": "id",
          "type": "uint256"
        }
      ],
      "name": "URI",
      "type": "event"
    },
    {
      "inputs": [],
      "name": "airdrop",
      "outputs": [],
      "stateMutability": "payable",
      "type": "function"
    },
    {
      "inputs": [
        {
          "internalType": "address",
          "name": "account",
          "type": "address"
        },
        {
          "internalType": "uint256",
          "name": "id",
          "type": "uint256"
        }
      ],
      "name": "balanceOf",
      "outputs": [
        {
          "internalType": "uint256",
          "name": "",
          "type": "uint256"
        }
      ],
      "stateMutability": "view",
      "type": "function"
    },
    {
      "inputs": [
        {
          "internalType": "address[]",
          "name": "accounts",
          "type": "address[]"
        },
        {
          "internalType": "uint256[]",
          "name": "ids",
          "type": "uint256[]"
        }
      ],
      "name": "balanceOfBatch",
      "outputs": [
        {
          "internalType": "uint256[]",
          "name": "",
          "type": "uint256[]"
        }
      ],
      "stateMutability": "view",
      "type": "function"
    },
    {
      "inputs": [
        {
          "internalType": "uint256",
          "name": "offerId",
          "type": "uint256"
        }
      ],
      "name": "cancelMarketOffer",
      "outputs": [],
      "stateMutability": "nonpayable",
      "type": "function"
    },
    {
      "inputs": [
        {
          "internalType": "uint256",
          "name": "tokenId",
          "type": "uint256"
        },
        {
          "internalType": "uint256",
          "name": "amount",
          "type": "uint256"
        },
        {
          "internalType": "uint256",
          "name": "price",
          "type": "uint256"
        }
      ],
      "name": "createMarketOffer",
      "outputs": [],
      "stateMutability": "nonpayable",
      "type": "function"
    },
    {
      "inputs": [
        {
          "internalType": "uint256",
          "name": "offerId",
          "type": "uint256"
        },
        {
          "internalType": "uint256",
          "name": "amount",
          "type": "uint256"
        }
      ],
      "name": "createMarketSale",
      "outputs": [],
      "stateMutability": "payable",
      "type": "function"
    },
    {
      "inputs": [
        {
          "internalType": "string",
          "name": "tokenURI",
          "type": "string"
        },
        {
          "internalType": "uint256",
          "name": "amount",
          "type": "uint256"
        },
        {
          "internalType": "bool",
          "name": "isPrivate",
          "type": "bool"
        },
        {
          "internalType": "bool",
          "name": "isFungible",
          "type": "bool"
        }
      ],
      "name": "createToken",
      "outputs": [
        {
          "internalType": "uint256",
          "name": "",
          "type": "uint256"
        }
      ],
      "stateMutability": "payable",
      "type": "function"
    },
    {
      "inputs": [
        {
          "internalType": "uint256",
          "name": "tokenType",
          "type": "uint256"
        }
      ],
      "name": "fetchMarketOffers",
      "outputs": [
        {
          "components": [
            {
              "components": [
                {
                  "internalType": "uint256",
                  "name": "tokenId",
                  "type": "uint256"
                },
                {
                  "internalType": "address payable",
                  "name": "creator",
                  "type": "address"
                },
                {
                  "internalType": "uint256",
                  "name": "totalAmount",
                  "type": "uint256"
                },
                {
                  "internalType": "bool",
                  "name": "isPrivate",
                  "type": "bool"
                },
                {
                  "internalType": "bool",
                  "name": "isFungible",
                  "type": "bool"
                }
              ],
              "internalType": "struct NFTMarketplace.MarketItem",
              "name": "item",
              "type": "tuple"
            },
            {
              "internalType": "uint256",
              "name": "offerId",
              "type": "uint256"
            },
            {
              "internalType": "address payable",
              "name": "seller",
              "type": "address"
            },
            {
              "internalType": "uint256",
              "name": "price",
              "type": "uint256"
            },
            {
              "internalType": "uint256",
              "name": "amount",
              "type": "uint256"
            },
            {
              "internalType": "bool",
              "name": "isActive",
              "type": "bool"
            }
          ],
          "internalType": "struct NFTMarketplace.MarketOffer[]",
          "name": "",
          "type": "tuple[]"
        }
      ],
      "stateMutability": "view",
      "type": "function"
    },
    {
      "inputs": [],
      "name": "fetchMyOffers",
      "outputs": [
        {
          "components": [
            {
              "components": [
                {
                  "internalType": "uint256",
                  "name": "tokenId",
                  "type": "uint256"
                },
                {
                  "internalType": "address payable",
                  "name": "creator",
                  "type": "address"
                },
                {
                  "internalType": "uint256",
                  "name": "totalAmount",
                  "type": "uint256"
                },
                {
                  "internalType": "bool",
                  "name": "isPrivate",
                  "type": "bool"
                },
                {
                  "internalType": "bool",
                  "name": "isFungible",
                  "type": "bool"
                }
              ],
              "internalType": "struct NFTMarketplace.MarketItem",
              "name": "item",
              "type": "tuple"
            },
            {
              "internalType": "uint256",
              "name": "offerId",
              "type": "uint256"
            },
            {
              "internalType": "address payable",
              "name": "seller",
              "type": "address"
            },
            {
              "internalType": "uint256",
              "name": "price",
              "type": "uint256"
            },
            {
              "internalType": "uint256",
              "name": "amount",
              "type": "uint256"
            },
            {
              "internalType": "bool",
              "name": "isActive",
              "type": "bool"
            }
          ],
          "internalType": "struct NFTMarketplace.MarketOffer[]",
          "name": "",
          "type": "tuple[]"
        }
      ],
      "stateMutability": "view",
      "type": "function"
    },
    {
      "inputs": [],
      "name": "fetchOwnedItems",
      "outputs": [
        {
          "components": [
            {
              "internalType": "uint256",
              "name": "tokenId",
              "type": "uint256"
            },
            {
              "internalType": "address payable",
              "name": "creator",
              "type": "address"
            },
            {
              "internalType": "uint256",
              "name": "totalAmount",
              "type": "uint256"
            },
            {
              "internalType": "bool",
              "name": "isPrivate",
              "type": "bool"
            },
            {
              "internalType": "bool",
              "name": "isFungible",
              "type": "bool"
            }
          ],
          "internalType": "struct NFTMarketplace.MarketItem[]",
          "name": "",
          "type": "tuple[]"
        }
      ],
      "stateMutability": "view",
      "type": "function"
    },
    {
      "inputs": [],
      "name": "getCreatorFee",
      "outputs": [
        {
          "internalType": "uint256",
          "name": "",
          "type": "uint256"
        }
      ],
      "stateMutability": "view",
      "type": "function"
    },
    {
      "inputs": [],
      "name": "getFungMintingFee",
      "outputs": [
        {
          "internalType": "uint256",
          "name": "",
          "type": "uint256"
        }
      ],
      "stateMutability": "view",
      "type": "function"
    },
    {
      "inputs": [],
      "name": "getMintingFee",
      "outputs": [
        {
          "internalType": "uint256",
          "name": "",
          "type": "uint256"
        }
      ],
      "stateMutability": "view",
      "type": "function"
    },
    {
      "inputs": [
        {
          "internalType": "address",
          "name": "account",
          "type": "address"
        },
        {
          "internalType": "address",
          "name": "operator",
          "type": "address"
        }
      ],
      "name": "isApprovedForAll",
      "outputs": [
        {
          "internalType": "bool",
          "name": "",
          "type": "bool"
        }
      ],
      "stateMutability": "view",
      "type": "function"
    },
    {
      "inputs": [
        {
          "internalType": "address",
          "name": "",
          "type": "address"
        },
        {
          "internalType": "address",
          "name": "",
          "type": "address"
        },
        {
          "internalType": "uint256[]",
          "name": "",
          "type": "uint256[]"
        },
        {
          "internalType": "uint256[]",
          "name": "",
          "type": "uint256[]"
        },
        {
          "internalType": "bytes",
          "name": "",
          "type": "bytes"
        }
      ],
      "name": "onERC1155BatchReceived",
      "outputs": [
        {
          "internalType": "bytes4",
          "name": "",
          "type": "bytes4"
        }
      ],
      "stateMutability": "nonpayable",
      "type": "function"
    },
    {
      "inputs": [
        {
          "internalType": "address",
          "name": "",
          "type": "address"
        },
        {
          "internalType": "address",
          "name": "",
          "type": "address"
        },
        {
          "internalType": "uint256",
          "name": "",
          "type": "uint256"
        },
        {
          "internalType": "uint256",
          "name": "",
          "type": "uint256"
        },
        {
          "internalType": "bytes",
          "name": "",
          "type": "bytes"
        }
      ],
      "name": "onERC1155Received",
      "outputs": [
        {
          "internalType": "bytes4",
          "name": "",
          "type": "bytes4"
        }
      ],
      "stateMutability": "nonpayable",
      "type": "function"
    },
    {
      "inputs": [],
      "name": "owner",
      "outputs": [
        {
          "internalType": "address",
          "name": "",
          "type": "address"
        }
      ],
      "stateMutability": "view",
      "type": "function"
    },
    {
      "inputs": [],
      "name": "renounceOwnership",
      "outputs": [],
      "stateMutability": "nonpayable",
      "type": "function"
    },
    {
      "inputs": [
        {
          "internalType": "address",
          "name": "from",
          "type": "address"
        },
        {
          "internalType": "address",
          "name": "to",
          "type": "address"
        },
        {
          "internalType": "uint256[]",
          "name": "ids",
          "type": "uint256[]"
        },
        {
          "internalType": "uint256[]",
          "name": "amounts",
          "type": "uint256[]"
        },
        {
          "internalType": "bytes",
          "name": "data",
          "type": "bytes"
        }
      ],
      "name": "safeBatchTransferFrom",
      "outputs": [],
      "stateMutability": "nonpayable",
      "type": "function"
    },
    {
      "inputs": [
        {
          "internalType": "address",
          "name": "from",
          "type": "address"
        },
        {
          "internalType": "address",
          "name": "to",
          "type": "address"
        },
        {
          "internalType": "uint256",
          "name": "id",
          "type": "uint256"
        },
        {
          "internalType": "uint256",
          "name": "amount",
          "type": "uint256"
        },
        {
          "internalType": "bytes",
          "name": "data",
          "type": "bytes"
        }
      ],
      "name": "safeTransferFrom",
      "outputs": [],
      "stateMutability": "nonpayable",
      "type": "function"
    },
    {
      "inputs": [
        {
          "internalType": "address",
          "name": "operator",
          "type": "address"
        },
        {
          "internalType": "bool",
          "name": "approved",
          "type": "bool"
        }
      ],
      "name": "setApprovalForAll",
      "outputs": [],
      "stateMutability": "nonpayable",
      "type": "function"
    },
    {
      "inputs": [
        {
          "internalType": "bytes4",
          "name": "interfaceId",
          "type": "bytes4"
        }
      ],
      "name": "supportsInterface",
      "outputs": [
        {
          "internalType": "bool",
          "name": "",
          "type": "bool"
        }
      ],
      "stateMutability": "view",
      "type": "function"
    },
    {
      "inputs": [
        {
          "internalType": "address",
          "name": "newOwner",
          "type": "address"
        }
      ],
      "name": "transferOwnership",
      "outputs": [],
      "stateMutability": "nonpayable",
      "type": "function"
    },
    {
      "inputs": [
        {
          "internalType": "uint256",
          "name": "_creatorFee",
          "type": "uint256"
        }
      ],
      "name": "updateCreatorFee",
      "outputs": [],
      "stateMutability": "payable",
      "type": "function"
    },
    {
      "inputs": [
        {
          "internalType": "uint256",
          "name": "_fungMintingFee",
          "type": "uint256"
        }
      ],
      "name": "updateFungMintingFee",
      "outputs": [],
      "stateMutability": "payable",
      "type": "function"
    },
    {
      "inputs": [
        {
          "internalType": "uint256",
          "name": "_mintingFee",
          "type": "uint256"
        }
      ],
      "name": "updateMintingFee",
      "outputs": [],
      "stateMutability": "payable",
      "type": "function"
    },
    {
      "inputs": [
        {
          "internalType": "uint256",
          "name": "tokenId",
          "type": "uint256"
        }
      ],
      "name": "uri",
      "outputs": [
        {
          "internalType": "string",
          "name": "",
          "type": "string"
        }
      ],
      "stateMutability": "view",
      "type": "function"
    }
  ],
  "bytecode": "0x60a06040819052600060808190526200001b91600491620000db565b50606460095566038d7ea4c68000600a556509184e72a000600b553480156200004357600080fd5b506040805160208101909152600081526200005e8162000070565b506200006a3362000089565b620001be565b805162000085906002906020840190620000db565b5050565b600380546001600160a01b038381166001600160a01b0319831681179093556040519116919082907f8be0079c531659141344cd1fd0a4f28419497f9722a3daafe3b4186f6b6457e090600090a35050565b828054620000e99062000181565b90600052602060002090601f0160209004810192826200010d576000855562000158565b82601f106200012857805160ff191683800117855562000158565b8280016001018555821562000158579182015b82811115620001585782518255916020019190600101906200013b565b50620001669291506200016a565b5090565b5b808211156200016657600081556001016200016b565b600181811c908216806200019657607f821691505b60208210811415620001b857634e487b7160e01b600052602260045260246000fd5b50919050565b613bc680620001ce6000396000f3fe60806040526004361061019b5760003560e01c8063775cdaad116100ec578063c0275a251161008a578063f23a6e6111610064578063f23a6e61146104a1578063f242432a146104cd578063f2fde38b146104ed578063f54303401461050d57600080fd5b8063c0275a2514610425578063e985e9c514610438578063f2259a801461048157600080fd5b8063a1c11ca8116100c6578063a1c11ca814610398578063a22cb465146103ab578063b59d88a9146103cb578063bc197c81146103e057600080fd5b8063775cdaad1461032e57806385313915146103505780638da5cb5b1461037057600080fd5b80633884d635116101595780634e1273f4116101335780634e1273f4146102c457806359322b37146102f15780635a5b0f5614610304578063715018a61461031957600080fd5b80633884d63514610289578063426179cb146102915780634a4bbdf9146102b157600080fd5b8062fdd58e146101a057806301ffc9a7146101d357806304a59f0c146102035780630e89341c146102255780631c4c9dad146102525780632eb2c2d614610267575b600080fd5b3480156101ac57600080fd5b506101c06101bb366004612e3f565b610520565b6040519081526020015b60405180910390f35b3480156101df57600080fd5b506101f36101ee366004612f32565b6105b7565b60405190151581526020016101ca565b34801561020f57600080fd5b506102186105c8565b6040516101ca9190613299565b34801561023157600080fd5b50610245610240366004612fe2565b6107f3565b6040516101ca9190613361565b34801561025e57600080fd5b50600b546101c0565b34801561027357600080fd5b50610287610282366004612d0f565b6107fe565b005b610287610895565b34801561029d57600080fd5b506102876102ac366004612fe2565b6110d5565b6102876102bf366004612fe2565b6111ee565b3480156102d057600080fd5b506102e46102df366004612e68565b61121d565b6040516101ca9190613329565b6102876102ff366004612fe2565b61137e565b34801561031057600080fd5b506009546101c0565b34801561032557600080fd5b506102876113ad565b34801561033a57600080fd5b506103436113e3565b6040516101ca919061324b565b34801561035c57600080fd5b5061028761036b36600461301b565b61157e565b34801561037c57600080fd5b506003546040516001600160a01b0390911681526020016101ca565b6102876103a6366004612ffa565b611828565b3480156103b757600080fd5b506102876103c6366004612e16565b611a3d565b3480156103d757600080fd5b50600a546101c0565b3480156103ec57600080fd5b5061040c6103fb366004612d0f565b63bc197c8160e01b95945050505050565b6040516001600160e01b031990911681526020016101ca565b610287610433366004612fe2565b611a4c565b34801561044457600080fd5b506101f3610453366004612cdd565b6001600160a01b03918216600090815260016020908152604080832093909416825291909152205460ff1690565b34801561048d57600080fd5b5061021861049c366004612fe2565b611a7b565b3480156104ad57600080fd5b5061040c6104bc366004612db4565b63f23a6e6160e01b95945050505050565b3480156104d957600080fd5b506102876104e8366004612db4565b611d20565b3480156104f957600080fd5b50610287610508366004612cc3565b611da7565b6101c061051b366004612f6a565b611e42565b60006001600160a01b0383166105915760405162461bcd60e51b815260206004820152602b60248201527f455243313135353a2062616c616e636520717565727920666f7220746865207a60448201526a65726f206164647265737360a81b60648201526084015b60405180910390fd5b506000908152602081815260408083206001600160a01b03949094168352929052205490565b60006105c282612020565b92915050565b606060006105d560075490565b905060008060015b838111610643576000818152600d602052604090206008015460ff16801561061e57506000818152600d60205260409020600501546001600160a01b031633145b156106315761062e6001836134a3565b91505b8061063b816135a8565b9150506105dd565b506000816001600160401b0381111561066c57634e487b7160e01b600052604160045260246000fd5b6040519080825280602002602001820160405280156106a557816020015b610692612ab3565b81526020019060019003908161068a5790505b50905060015b8481116107ea576000818152600d602052604090206008015460ff1680156106ec57506000818152600d60205260409020600501546001600160a01b031633145b156107d8576000818152600d6020908152604091829020825161016081018452815460c0820190815260018301546001600160a01b0390811660e0840152600284015461010080850191909152600385015460ff80821615156101208701529190048116151561014085015291835260048401549483019490945260058301549093169381019390935260068101546060840152600781015460808401526008810154909116151560a083015283519091908490879081106107be57634e487b7160e01b600052603260045260246000fd5b60209081029190910101526107d46001866134a3565b9450505b806107e2816135a8565b9150506106ab565b50949350505050565b60606105c282612045565b6001600160a01b03851633148061081a575061081a8533610453565b6108815760405162461bcd60e51b815260206004820152603260248201527f455243313135353a207472616e736665722063616c6c6572206973206e6f74206044820152711bdddb995c881b9bdc88185c1c1c9bdd995960721b6064820152608401610588565b61088e8585858585612125565b5050505050565b6003546001600160a01b031633146108bf5760405162461bcd60e51b81526004016105889061344b565b60006040518061022001604052806040518060800160405280604a81526020016139d5604a913981526020016040518060800160405280604a8152602001613a69604a913981526020016040518060800160405280604a815260200161373b604a913981526020016040518060800160405280604a8152602001613819604a913981526020016040518060800160405280604a8152602001613b47604a913981526020016040518060800160405280604a81526020016137cf604a913981526020016040518060800160405280604a8152602001613a1f604a913981526020016040518060800160405280604a81526020016136f1604a913981526020016040518060800160405280604a8152602001613ab3604a913981526020016040518060800160405280604a81526020016138f7604a913981526020016040518060800160405280604a8152602001613863604a913981526020016040518060800160405280604a8152602001613941604a913981526020016040518060800160405280604a81526020016136a7604a913981526020016040518060800160405280604a81526020016138ad604a913981526020016040518060800160405280604a8152602001613785604a913981526020016040518060800160405280604a8152602001613afd604a913981526020016040518060800160405280604a815260200161398b604a913981525090506000604051806102200160405280602362ffffff168152602001601962ffffff168152602001602862ffffff168152602001603262ffffff168152602001602362ffffff168152602001601462ffffff168152602001606462ffffff168152602001603262ffffff168152602001602362ffffff168152602001602d62ffffff168152602001603c62ffffff168152602001603762ffffff168152602001604662ffffff168152602001603262ffffff168152602001620f424062ffffff168152602001620186a062ffffff168152602001620f424062ffffff1681525090506000604051806102200160405280600015151515815260200160001515151581526020016000151515158152602001600015151515815260200160001515151581526020016000151515158152602001600015151515815260200160001515151581526020016000151515158152602001600015151515815260200160011515151581526020016001151515158152602001600115151515815260200160011515151581526020016000151515158152602001600015151515815260200160001515151581525090506000604051806102200160405280600015151515815260200160001515151581526020016000151515158152602001600015151515815260200160001515151581526020016000151515158152602001600015151515815260200160001515151581526020016000151515158152602001600015151515815260200160001515151581526020016000151515158152602001600015151515815260200160001515151581526020016001151515158152602001600115151515815260200160011515151581525090506000604051806102200160405280600f62ffffff168152602001600562ffffff168152602001601962ffffff168152602001602862ffffff168152602001601962ffffff168152602001600f62ffffff168152602001605062ffffff168152602001601962ffffff168152602001601962ffffff168152602001602862ffffff168152602001601e62ffffff168152602001602d62ffffff168152602001603c62ffffff168152602001602d62ffffff168152602001620c350062ffffff168152602001620124f862ffffff168152602001620dbba062ffffff1681525090506000604051806102200160405280662386f26fc100006001600160401b0316815260200166470de4df8200006001600160401b0316815260200166354a6ba7a180006001600160401b031681526020016618de76816d80006001600160401b031681526020016658d15e176280006001600160401b0316815260200166038d7ea4c680006001600160401b0316815260200166071afd498d00006001600160401b031681526020016608e1bc9bf040006001600160401b0316815260200166038d7ea4c680006001600160401b031681526020016613e52b9abe00006001600160401b0316815260200167016345785d8a00006001600160401b0316815260200166c3663566a580006001600160401b03168152602001670214e8348c4f00006001600160401b0316815260200167016345785d8a00006001600160401b031681526020016509184e72a0006001600160401b03168152602001650ae9f7bcc0006001600160401b031681526020016509184e72a0006001600160401b0316815250905060005b60118110156110cc5761104e878260118110610fd057634e487b7160e01b600052603260045260246000fd5b6020020151878360118110610ff557634e487b7160e01b600052603260045260246000fd5b602002015162ffffff1687846011811061101f57634e487b7160e01b600052603260045260246000fd5b602002015187856011811061104457634e487b7160e01b600052603260045260246000fd5b6020020151611e42565b506110ba61105d8260016134a3565b84836011811061107d57634e487b7160e01b600052603260045260246000fd5b602002015162ffffff168484601181106110a757634e487b7160e01b600052603260045260246000fd5b60200201516001600160401b031661157e565b806110c4816135a8565b915050610fa4565b50505050505050565b6000818152600d602052604090208054600582015460079092015490916001600160a01b03169060603383146111595760405162461bcd60e51b815260206004820152602360248201527f4f6e6c79207468652073656c6c65722063616e2063616e63656c207468652073604482015262616c6560e81b6064820152608401610588565b611166303386858561231e565b6000858152600d6020526040812060078101919091556005810180546001600160a01b03191690556008908101805460ff191690556111a490612448565b6040805186815233602082015290810183905284907f3fdca928b1865603b1e7482f642b63f4808e0cd3272a0a0e974ddcee373e8938906060015b60405180910390a25050505050565b6003546001600160a01b031633146112185760405162461bcd60e51b81526004016105889061344b565b600955565b606081518351146112825760405162461bcd60e51b815260206004820152602960248201527f455243313135353a206163636f756e747320616e6420696473206c656e677468604482015268040dad2e6dac2e8c6d60bb1b6064820152608401610588565b600083516001600160401b038111156112ab57634e487b7160e01b600052604160045260246000fd5b6040519080825280602002602001820160405280156112d4578160200160208202803683370190505b50905060005b84518110156113765761133b85828151811061130657634e487b7160e01b600052603260045260246000fd5b602002602001015185838151811061132e57634e487b7160e01b600052603260045260246000fd5b6020026020010151610520565b82828151811061135b57634e487b7160e01b600052603260045260246000fd5b602090810291909101015261136f816135a8565b90506112da565b509392505050565b6003546001600160a01b031633146113a85760405162461bcd60e51b81526004016105889061344b565b600b55565b6003546001600160a01b031633146113d75760405162461bcd60e51b81526004016105889061344b565b6113e1600061249f565b565b606060006113f060065490565b905060008060015b83811161143157600061140b3383610520565b111561141f5761141c6001846134a3565b92505b80611429816135a8565b9150506113f8565b506000826001600160401b0381111561145a57634e487b7160e01b600052604160045260246000fd5b6040519080825280602002602001820160405280156114b357816020015b6040805160a0810182526000808252602080830182905292820181905260608201819052608082015282526000199092019101816114785790505b50905060015b8481116107ea5760006114cc3383610520565b111561156c576000818152600c6020908152604091829020825160a0810184528154815260018201546001600160a01b031692810192909252600281015492820192909252600382015460ff808216151560608401526101009091041615156080820152835184908690811061155257634e487b7160e01b600052603260045260246000fd5b60209081029190910101526115686001856134a3565b9350505b80611576816135a8565b9150506114b9565b600081116115ce5760405162461bcd60e51b815260206004820152601c60248201527f5072696365206d757374206265206174206c65617374203120776569000000006044820152606401610588565b60606115dd333086868561231e565b6115eb600780546001019055565b60006115f660075490565b90506040518060c00160405280600c60008881526020019081526020016000206040518060a0016040529081600082015481526020016001820160009054906101000a90046001600160a01b03166001600160a01b03166001600160a01b03168152602001600282015481526020016003820160009054906101000a900460ff161515151581526020016003820160019054906101000a900460ff1615151515815250508152602001828152602001336001600160a01b0316815260200184815260200185815260200160011515815250600d60008381526020019081526020016000206000820151816000016000820151816000015560208201518160010160006101000a8154816001600160a01b0302191690836001600160a01b031602179055506040820151816002015560608201518160030160006101000a81548160ff02191690831515021790555060808201518160030160016101000a81548160ff02191690831515021790555050506020820151816004015560408201518160050160006101000a8154816001600160a01b0302191690836001600160a01b03160217905550606082015181600601556080820151816007015560a08201518160080160006101000a81548160ff0219169083151502179055509050506117e2600880546001019055565b604080518281523360208201529081018490526060810185905285907f5018fe313dfa61e452b0230bbc0edeb12208931a9fea00bc5d3ad3e6599f7f34906080016111df565b6000828152600d602052604081208054600182015460069092015490926001600160a01b03909216919061185d9085906134db565b905060006009548261186f91906134bb565b6000878152600d6020526040812060058101546007909101549293506001600160a01b0316916118a09088906134fa565b905060606118ae84866134a3565b3410156119105760405162461bcd60e51b815260206004820152602a60248201527f496e73756666696369656e742076616c75652073656e7420746f20637265617460448201526965207468652073616c6560b01b6064820152608401610588565b61191d3033898b8561231e565b6040516001600160a01b0387169085156108fc029086906000818181858888f19350505050158015611953573d6000803e3d6000fd5b506040516001600160a01b0384169086156108fc029087906000818181858888f1935050505015801561198a573d6000803e3d6000fd5b506000898152600d60205260409020600701829055816119da576000898152600d602052604090206005810180546001600160a01b03191690556008908101805460ff191690556119da90612448565b604080518a81523360208201526001600160a01b0385168183015260608101879052608081018a9052905188917f46e3967d9aef98d74780ace0931f6e82e00d91621c0b6c95867374a16047f909919081900360a00190a2505050505050505050565b611a483383836124f1565b5050565b6003546001600160a01b03163314611a765760405162461bcd60e51b81526004016105889061344b565b600a55565b60606000611a87612ab3565b6000611a9260085490565b6001600160401b03811115611ab757634e487b7160e01b600052604160045260246000fd5b604051908082528060200260200182016040528015611af057816020015b611add612ab3565b815260200190600190039081611ad55790505b50905060015b60075481116107ea576000818152600d6020908152604091829020825161016081018452815460c0820190815260018301546001600160a01b0390811660e0840152600284015461010080850191909152600385015460ff80821615156101208701529190048116151561014085015291835260048401549483019490945260058301549093169381019390935260068101546060840152600781015460808401526008015416151560a0820152925085158015611bb557508260a001515b8015611bc45750825160600151155b8015611bd35750825160800151155b15611c165782828581518110611bf957634e487b7160e01b600052603260045260246000fd5b6020908102919091010152611c0f6001856134a3565b9350611d0e565b856001148015611c2757508260a001515b8015611c3557508251606001515b8015611c445750825160800151155b15611c6a5782828581518110611bf957634e487b7160e01b600052603260045260246000fd5b856002148015611c7b57508260a001515b8015611c8a5750825160600151155b8015611c9857508251608001515b15611cbe5782828581518110611bf957634e487b7160e01b600052603260045260246000fd5b856003148015611ccf57508260a001515b15611d0e5782828581518110611cf557634e487b7160e01b600052603260045260246000fd5b6020908102919091010152611d0b6001856134a3565b93505b80611d18816135a8565b915050611af6565b6001600160a01b038516331480611d3c5750611d3c8533610453565b611d9a5760405162461bcd60e51b815260206004820152602960248201527f455243313135353a2063616c6c6572206973206e6f74206f776e6572206e6f7260448201526808185c1c1c9bdd995960ba1b6064820152608401610588565b61088e858585858561231e565b6003546001600160a01b03163314611dd15760405162461bcd60e51b81526004016105889061344b565b6001600160a01b038116611e365760405162461bcd60e51b815260206004820152602660248201527f4f776e61626c653a206e6577206f776e657220697320746865207a65726f206160448201526564647265737360d01b6064820152608401610588565b611e3f8161249f565b50565b6000808215611e5f57600b54611e5890866134db565b9050611e6f565b600a54611e6c90866134db565b90505b80341015611ebf5760405162461bcd60e51b815260206004820152601f60248201527f496e73756666696369656e74206d696e74696e672076616c75652073656e74006044820152606401610588565b6003546040516001600160a01b039091169082156108fc029083906000818181858888f19350505050158015611ef9573d6000803e3d6000fd5b50611f08600680546001019055565b6000611f1360065490565b90506060611f23338389846125d2565b611f2d82896126dd565b6040805160a080820183528482523360208084018281528486018d81528c151560608088018281528e15156080808b0182815260008f8152600c8a528d90209b518c55965160018c0180546001600160a01b0319166001600160a01b03909216919091179055945160028b0155905160039099018054955161ffff1990961699151561ff00191699909917610100951515959095029490941790975587519485529284018e9052958301919091529281019290925291810185905283917faa6f015c9b3821c211517250bad94098ee0848b9c60c383145315e7f97b4da98910160405180910390a2509695505050505050565b60006001600160e01b03198216630271189760e51b14806105c257506105c282612741565b60008181526005602052604081208054606092919061206390613541565b80601f016020809104026020016040519081016040528092919081815260200182805461208f90613541565b80156120dc5780601f106120b1576101008083540402835291602001916120dc565b820191906000526020600020905b8154815290600101906020018083116120bf57829003601f168201915b5050505050905060008151116120fa576120f583612791565b61211e565b60048160405160200161210e929190613102565b6040516020818303038152906040525b9392505050565b81518351146121875760405162461bcd60e51b815260206004820152602860248201527f455243313135353a2069647320616e6420616d6f756e7473206c656e677468206044820152670dad2e6dac2e8c6d60c31b6064820152608401610588565b6001600160a01b0384166121ad5760405162461bcd60e51b8152600401610588906133bc565b3360005b84518110156122b05760008582815181106121dc57634e487b7160e01b600052603260045260246000fd5b60200260200101519050600085838151811061220857634e487b7160e01b600052603260045260246000fd5b602090810291909101810151600084815280835260408082206001600160a01b038e1683529093529190912054909150818110156122585760405162461bcd60e51b815260040161058890613401565b6000838152602081815260408083206001600160a01b038e8116855292528083208585039055908b168252812080548492906122959084906134a3565b92505081905550505050806122a9906135a8565b90506121b1565b50846001600160a01b0316866001600160a01b0316826001600160a01b03167f4a39dc06d4c0dbc64b70af90fd698a233a518aa5d07e595d983b8c0526c8f7fb878760405161230092919061333c565b60405180910390a4612316818787878787612825565b505050505050565b6001600160a01b0384166123445760405162461bcd60e51b8152600401610588906133bc565b33600061235085612990565b9050600061235d85612990565b90506000868152602081815260408083206001600160a01b038c168452909152902054858110156123a05760405162461bcd60e51b815260040161058890613401565b6000878152602081815260408083206001600160a01b038d8116855292528083208985039055908a168252812080548892906123dd9084906134a3565b909155505060408051888152602081018890526001600160a01b03808b16928c821692918816917fc3d58168c5ae7397731d063d5bbf3d657854427343f4c083240f7aacaa2d0f62910160405180910390a461243d848a8a8a8a8a6129e9565b505050505050505050565b8054806124975760405162461bcd60e51b815260206004820152601b60248201527f436f756e7465723a2064656372656d656e74206f766572666c6f7700000000006044820152606401610588565b600019019055565b600380546001600160a01b038381166001600160a01b0319831681179093556040519116919082907f8be0079c531659141344cd1fd0a4f28419497f9722a3daafe3b4186f6b6457e090600090a35050565b816001600160a01b0316836001600160a01b031614156125655760405162461bcd60e51b815260206004820152602960248201527f455243313135353a2073657474696e6720617070726f76616c20737461747573604482015268103337b91039b2b63360b91b6064820152608401610588565b6001600160a01b03838116600081815260016020908152604080832094871680845294825291829020805460ff191686151590811790915591519182527f17307eab39ab6107e8899845ad3d59bd9653f200f220920489ca2b5937696c31910160405180910390a3505050565b6001600160a01b0384166126325760405162461bcd60e51b815260206004820152602160248201527f455243313135353a206d696e7420746f20746865207a65726f206164647265736044820152607360f81b6064820152608401610588565b33600061263e85612990565b9050600061264b85612990565b90506000868152602081815260408083206001600160a01b038b1684529091528120805487929061267d9084906134a3565b909155505060408051878152602081018790526001600160a01b03808a1692600092918716917fc3d58168c5ae7397731d063d5bbf3d657854427343f4c083240f7aacaa2d0f62910160405180910390a46110cc836000898989896129e9565b600082815260056020908152604090912082516126fc92840190612b0e565b50817f6bb7ff708619ba0610cba295a58592e0451dee2622938c8755667688daf3529b612728846107f3565b6040516127359190613361565b60405180910390a25050565b60006001600160e01b03198216636cdb3d1360e11b148061277257506001600160e01b031982166303a24d0760e21b145b806105c257506301ffc9a760e01b6001600160e01b03198316146105c2565b6060600280546127a090613541565b80601f01602080910402602001604051908101604052809291908181526020018280546127cc90613541565b80156128195780601f106127ee57610100808354040283529160200191612819565b820191906000526020600020905b8154815290600101906020018083116127fc57829003601f168201915b50505050509050919050565b6001600160a01b0384163b156123165760405163bc197c8160e01b81526001600160a01b0385169063bc197c819061286990899089908890889088906004016131a8565b602060405180830381600087803b15801561288357600080fd5b505af19250505080156128b3575060408051601f3d908101601f191682019092526128b091810190612f4e565b60015b612960576128bf6135ef565b806308c379a014156128f957506128d4613607565b806128df57506128fb565b8060405162461bcd60e51b81526004016105889190613361565b505b60405162461bcd60e51b815260206004820152603460248201527f455243313135353a207472616e7366657220746f206e6f6e20455243313135356044820152732932b1b2b4bb32b91034b6b83632b6b2b73a32b960611b6064820152608401610588565b6001600160e01b0319811663bc197c8160e01b146110cc5760405162461bcd60e51b815260040161058890613374565b604080516001808252818301909252606091600091906020808301908036833701905050905082816000815181106129d857634e487b7160e01b600052603260045260246000fd5b602090810291909101015292915050565b6001600160a01b0384163b156123165760405163f23a6e6160e01b81526001600160a01b0385169063f23a6e6190612a2d9089908990889088908890600401613206565b602060405180830381600087803b158015612a4757600080fd5b505af1925050508015612a77575060408051601f3d908101601f19168201909252612a7491810190612f4e565b60015b612a83576128bf6135ef565b6001600160e01b0319811663f23a6e6160e01b146110cc5760405162461bcd60e51b815260040161058890613374565b6040805161016081018252600060c0820181815260e08301829052610100830182905261012083018290526101408301829052825260208201819052918101829052606081018290526080810182905260a081019190915290565b828054612b1a90613541565b90600052602060002090601f016020900481019282612b3c5760008555612b82565b82601f10612b5557805160ff1916838001178555612b82565b82800160010185558215612b82579182015b82811115612b82578251825591602001919060010190612b67565b50612b8e929150612b92565b5090565b5b80821115612b8e5760008155600101612b93565b60006001600160401b03831115612bc057612bc06135d9565b604051612bd7601f8501601f19166020018261357c565b809150838152848484011115612bec57600080fd5b83836020830137600060208583010152509392505050565b80356001600160a01b0381168114612c1b57600080fd5b919050565b600082601f830112612c30578081fd5b81356020612c3d82613480565b604051612c4a828261357c565b8381528281019150858301600585901b87018401881015612c69578586fd5b855b85811015612c8757813584529284019290840190600101612c6b565b5090979650505050505050565b80358015158114612c1b57600080fd5b600082601f830112612cb4578081fd5b61211e83833560208501612ba7565b600060208284031215612cd4578081fd5b61211e82612c04565b60008060408385031215612cef578081fd5b612cf883612c04565b9150612d0660208401612c04565b90509250929050565b600080600080600060a08688031215612d26578081fd5b612d2f86612c04565b9450612d3d60208701612c04565b935060408601356001600160401b0380821115612d58578283fd5b612d6489838a01612c20565b94506060880135915080821115612d79578283fd5b612d8589838a01612c20565b93506080880135915080821115612d9a578283fd5b50612da788828901612ca4565b9150509295509295909350565b600080600080600060a08688031215612dcb578081fd5b612dd486612c04565b9450612de260208701612c04565b9350604086013592506060860135915060808601356001600160401b03811115612e0a578182fd5b612da788828901612ca4565b60008060408385031215612e28578182fd5b612e3183612c04565b9150612d0660208401612c94565b60008060408385031215612e51578182fd5b612e5a83612c04565b946020939093013593505050565b60008060408385031215612e7a578182fd5b82356001600160401b0380821115612e90578384fd5b818501915085601f830112612ea3578384fd5b81356020612eb082613480565b604051612ebd828261357c565b8381528281019150858301600585901b870184018b1015612edc578889fd5b8896505b84871015612f0557612ef181612c04565b835260019690960195918301918301612ee0565b5096505086013592505080821115612f1b578283fd5b50612f2885828601612c20565b9150509250929050565b600060208284031215612f43578081fd5b813561211e81613690565b600060208284031215612f5f578081fd5b815161211e81613690565b60008060008060808587031215612f7f578182fd5b84356001600160401b03811115612f94578283fd5b8501601f81018713612fa4578283fd5b612fb387823560208401612ba7565b94505060208501359250612fc960408601612c94565b9150612fd760608601612c94565b905092959194509250565b600060208284031215612ff3578081fd5b5035919050565b6000806040838503121561300c578182fd5b50508035926020909101359150565b60008060006060848603121561302f578081fd5b505081359360208301359350604090920135919050565b6000815180845260208085019450808401835b8381101561307557815187529582019590820190600101613059565b509495945050505050565b60008151808452613098816020860160208601613511565b601f01601f19169290920160200192915050565b600081516130be818560208601613511565b9290920192915050565b805182526020808201516001600160a01b031690830152604080820151908301526060808201511515908301526080908101511515910152565b600080845482600182811c91508083168061311e57607f831692505b602080841082141561313e57634e487b7160e01b87526022600452602487fd5b81801561315257600181146131635761318f565b60ff1986168952848901965061318f565b60008b815260209020885b868110156131875781548b82015290850190830161316e565b505084890196505b50505050505061319f81856130ac565b95945050505050565b6001600160a01b0386811682528516602082015260a0604082018190526000906131d490830186613046565b82810360608401526131e68186613046565b905082810360808401526131fa8185613080565b98975050505050505050565b6001600160a01b03868116825285166020820152604081018490526060810183905260a06080820181905260009061324090830184613080565b979650505050505050565b6020808252825182820181905260009190848201906040850190845b8181101561328d5761327a8385516130c8565b9284019260a09290920191600101613267565b50909695505050505050565b602080825282518282018190526000919060409081850190868401855b8281101561331c5781516132cb8582516130c8565b8087015160a086810191909152868201516001600160a01b031660c0870152606082015160e087015260808201516101008701520151151561012085015261014090930192908501906001016132b6565b5091979650505050505050565b60208152600061211e6020830184613046565b60408152600061334f6040830185613046565b828103602084015261319f8185613046565b60208152600061211e6020830184613080565b60208082526028908201527f455243313135353a204552433131353552656365697665722072656a656374656040820152676420746f6b656e7360c01b606082015260800190565b60208082526025908201527f455243313135353a207472616e7366657220746f20746865207a65726f206164604082015264647265737360d81b606082015260800190565b6020808252602a908201527f455243313135353a20696e73756666696369656e742062616c616e636520666f60408201526939103a3930b739b332b960b11b606082015260800190565b6020808252818101527f4f776e61626c653a2063616c6c6572206973206e6f7420746865206f776e6572604082015260600190565b60006001600160401b03821115613499576134996135d9565b5060051b60200190565b600082198211156134b6576134b66135c3565b500190565b6000826134d657634e487b7160e01b81526012600452602481fd5b500490565b60008160001904831182151516156134f5576134f56135c3565b500290565b60008282101561350c5761350c6135c3565b500390565b60005b8381101561352c578181015183820152602001613514565b8381111561353b576000848401525b50505050565b600181811c9082168061355557607f821691505b6020821081141561357657634e487b7160e01b600052602260045260246000fd5b50919050565b601f8201601f191681016001600160401b03811182821017156135a1576135a16135d9565b6040525050565b60006000198214156135bc576135bc6135c3565b5060010190565b634e487b7160e01b600052601160045260246000fd5b634e487b7160e01b600052604160045260246000fd5b600060033d111561360457600481823e5160e01c5b90565b600060443d10156136155790565b6040516003193d81016004833e81513d6001600160401b03816024840111818411171561364457505050505090565b828501915081518181111561365c5750505050505090565b843d87010160208285010111156136765750505050505090565b6136856020828601018761357c565b509095945050505050565b6001600160e01b031981168114611e3f57600080fdfe68747470733a2f2f697066732e696e667572612e696f2f697066732f516d5468585454784d6f6a384e64614e4e634678537861636e675258483458746779526d514d4a335a334468357168747470733a2f2f697066732e696e667572612e696f2f697066732f516d5279746a476236633870453532334c35327638483145446941446965397879796936656f323836394c77715068747470733a2f2f697066732e696e667572612e696f2f697066732f516d547072516346424b56444d664b33735444413468784e79436d62537a586466365a67544d797057463735466668747470733a2f2f697066732e696e667572612e696f2f697066732f516d5169393776456d4651554237455a76336a6d39615a48754656776e584769727746634558784c6d784275315568747470733a2f2f697066732e696e667572612e696f2f697066732f516d51706a4a41716247793345374d3379464c394b795a543957456f57664e33544568507279527179697071457268747470733a2f2f697066732e696e667572612e696f2f697066732f516d6167424a6174577559675368383733776b3143347839636937545a53364d73554353365957484a6b4d68396d68747470733a2f2f697066732e696e667572612e696f2f697066732f516d50554b737a51344e55705a626d4378713144586a4352735372416f706a50365970686d66484c3478736e395668747470733a2f2f697066732e696e667572612e696f2f697066732f516d57464a486d5a46356f4e684c5a58474c5a667a686a4e6247696d73353641376d4862576d77364a445537773268747470733a2f2f697066732e696e667572612e696f2f697066732f516d61526e646f6d385232574d324b77365035374b6169706e596f587550644348684355614d374b524a5656746a68747470733a2f2f697066732e696e667572612e696f2f697066732f516d597575534e794875517154714c785855374c77566569707133723644476a59686a35354b51394b6f6a4a6d7268747470733a2f2f697066732e696e667572612e696f2f697066732f516d535556617a5563704856444e76694e7a73667543746b577174324465714a32705638446a6d7a537a6576357568747470733a2f2f697066732e696e667572612e696f2f697066732f516d6468567667736750633346434a454a6454334b6165707a69504b6933646b79656f36357768367a4d574d6e4168747470733a2f2f697066732e696e667572612e696f2f697066732f516d665674417054684151677a7a6262516d437262757845396978334d56534d714b4b79674635784e6d6977613468747470733a2f2f697066732e696e667572612e696f2f697066732f516d55353656504b5872564b4e775a57354a6a4d4e4a5542594b566d3866785a776f6f79545353526e514143537668747470733a2f2f697066732e696e667572612e696f2f697066732f516d534152564156787353753979587248416376734d676934397a565a4e394147785574706459756d634c65777168747470733a2f2f697066732e696e667572612e696f2f697066732f516d5951713369483236525a37674555377a4b7277757541627a776f6d6d366b4c45635378464c38684c6170627568747470733a2f2f697066732e696e667572612e696f2f697066732f516d5a533733335065726d70376d42513353415a44454a35585a6731436237623362697454637566454352426261a264697066735822122057e579fe62d56cdfe24dc903b42834c3db13670669c63ad2a0e714a2582751f964736f6c63430008040033",
  "linkReferences": {},
  "deployedLinkReferences": {}
}