{
  "_format": "hh-sol-artifact-1",
  "contractName": "GastrooToken",
  "sourceName": "contracts/GastrooToken.sol",
  "abi": [
    {
      "inputs": [],
      "stateMutability": "nonpayable",
      "type": "constructor"
    },
    {
      "anonymous": false,
      "inputs": [
        {
          "indexed": true,
          "internalType": "address",
          "name": "owner",
          "type": "address"
        },
        {
          "indexed": true,
          "internalType": "address",
          "name": "spender",
          "type": "address"
        },
        {
          "indexed": false,
          "internalType": "uint256",
          "name": "value",
          "type": "uint256"
        }
      ],
      "name": "Approval",
      "type": "event"
    },
    {
      "anonymous": false,
      "inputs": [
        {
          "indexed": true,
          "internalType": "address",
          "name": "previousOwner",
          "type": "address"
        },
        {
          "indexed": true,
          "internalType": "address",
          "name": "newOwner",
          "type": "address"
        }
      ],
      "name": "OwnershipTransferred",
      "type": "event"
    },
    {
      "anonymous": false,
      "inputs": [
        {
          "indexed": false,
          "internalType": "uint256",
          "name": "id",
          "type": "uint256"
        }
      ],
      "name": "Snapshot",
      "type": "event"
    },
    {
      "anonymous": false,
      "inputs": [
        {
          "indexed": true,
          "internalType": "address",
          "name": "from",
          "type": "address"
        },
        {
          "indexed": true,
          "internalType": "address",
          "name": "to",
          "type": "address"
        },
        {
          "indexed": false,
          "internalType": "uint256",
          "name": "value",
          "type": "uint256"
        }
      ],
      "name": "Transfer",
      "type": "event"
    },
    {
      "inputs": [],
      "name": "DOMAIN_SEPARATOR",
      "outputs": [
        {
          "internalType": "bytes32",
          "name": "",
          "type": "bytes32"
        }
      ],
      "stateMutability": "view",
      "type": "function"
    },
    {
      "inputs": [
        {
          "internalType": "address",
          "name": "owner",
          "type": "address"
        },
        {
          "internalType": "address",
          "name": "spender",
          "type": "address"
        }
      ],
      "name": "allowance",
      "outputs": [
        {
          "internalType": "uint256",
          "name": "",
          "type": "uint256"
        }
      ],
      "stateMutability": "view",
      "type": "function"
    },
    {
      "inputs": [
        {
          "internalType": "address",
          "name": "spender",
          "type": "address"
        },
        {
          "internalType": "uint256",
          "name": "amount",
          "type": "uint256"
        }
      ],
      "name": "approve",
      "outputs": [
        {
          "internalType": "bool",
          "name": "",
          "type": "bool"
        }
      ],
      "stateMutability": "nonpayable",
      "type": "function"
    },
    {
      "inputs": [
        {
          "internalType": "address",
          "name": "account",
          "type": "address"
        }
      ],
      "name": "balanceOf",
      "outputs": [
        {
          "internalType": "uint256",
          "name": "",
          "type": "uint256"
        }
      ],
      "stateMutability": "view",
      "type": "function"
    },
    {
      "inputs": [
        {
          "internalType": "address",
          "name": "account",
          "type": "address"
        },
        {
          "internalType": "uint256",
          "name": "snapshotId",
          "type": "uint256"
        }
      ],
      "name": "balanceOfAt",
      "outputs": [
        {
          "internalType": "uint256",
          "name": "",
          "type": "uint256"
        }
      ],
      "stateMutability": "view",
      "type": "function"
    },
    {
      "inputs": [
        {
          "internalType": "uint256",
          "name": "amount",
          "type": "uint256"
        }
      ],
      "name": "burn",
      "outputs": [],
      "stateMutability": "nonpayable",
      "type": "function"
    },
    {
      "inputs": [
        {
          "internalType": "address",
          "name": "account",
          "type": "address"
        },
        {
          "internalType": "uint256",
          "name": "amount",
          "type": "uint256"
        }
      ],
      "name": "burnFrom",
      "outputs": [],
      "stateMutability": "nonpayable",
      "type": "function"
    },
    {
      "inputs": [],
      "name": "decimals",
      "outputs": [
        {
          "internalType": "uint8",
          "name": "",
          "type": "uint8"
        }
      ],
      "stateMutability": "view",
      "type": "function"
    },
    {
      "inputs": [
        {
          "internalType": "address",
          "name": "spender",
          "type": "address"
        },
        {
          "internalType": "uint256",
          "name": "subtractedValue",
          "type": "uint256"
        }
      ],
      "name": "decreaseAllowance",
      "outputs": [
        {
          "internalType": "bool",
          "name": "",
          "type": "bool"
        }
      ],
      "stateMutability": "nonpayable",
      "type": "function"
    },
    {
      "inputs": [
        {
          "internalType": "address",
          "name": "spender",
          "type": "address"
        },
        {
          "internalType": "uint256",
          "name": "addedValue",
          "type": "uint256"
        }
      ],
      "name": "increaseAllowance",
      "outputs": [
        {
          "internalType": "bool",
          "name": "",
          "type": "bool"
        }
      ],
      "stateMutability": "nonpayable",
      "type": "function"
    },
    {
      "inputs": [
        {
          "internalType": "address",
          "name": "to",
          "type": "address"
        },
        {
          "internalType": "uint256",
          "name": "amount",
          "type": "uint256"
        }
      ],
      "name": "mint",
      "outputs": [],
      "stateMutability": "nonpayable",
      "type": "function"
    },
    {
      "inputs": [],
      "name": "name",
      "outputs": [
        {
          "internalType": "string",
          "name": "",
          "type": "string"
        }
      ],
      "stateMutability": "view",
      "type": "function"
    },
    {
      "inputs": [
        {
          "internalType": "address",
          "name": "owner",
          "type": "address"
        }
      ],
      "name": "nonces",
      "outputs": [
        {
          "internalType": "uint256",
          "name": "",
          "type": "uint256"
        }
      ],
      "stateMutability": "view",
      "type": "function"
    },
    {
      "inputs": [],
      "name": "owner",
      "outputs": [
        {
          "internalType": "address",
          "name": "",
          "type": "address"
        }
      ],
      "stateMutability": "view",
      "type": "function"
    },
    {
      "inputs": [
        {
          "internalType": "address",
          "name": "owner",
          "type": "address"
        },
        {
          "internalType": "address",
          "name": "spender",
          "type": "address"
        },
        {
          "internalType": "uint256",
          "name": "value",
          "type": "uint256"
        },
        {
          "internalType": "uint256",
          "name": "deadline",
          "type": "uint256"
        },
        {
          "internalType": "uint8",
          "name": "v",
          "type": "uint8"
        },
        {
          "internalType": "bytes32",
          "name": "r",
          "type": "bytes32"
        },
        {
          "internalType": "bytes32",
          "name": "s",
          "type": "bytes32"
        }
      ],
      "name": "permit",
      "outputs": [],
      "stateMutability": "nonpayable",
      "type": "function"
    },
    {
      "inputs": [],
      "name": "renounceOwnership",
      "outputs": [],
      "stateMutability": "nonpayable",
      "type": "function"
    },
    {
      "inputs": [],
      "name": "snapshot",
      "outputs": [],
      "stateMutability": "nonpayable",
      "type": "function"
    },
    {
      "inputs": [],
      "name": "symbol",
      "outputs": [
        {
          "internalType": "string",
          "name": "",
          "type": "string"
        }
      ],
      "stateMutability": "view",
      "type": "function"
    },
    {
      "inputs": [],
      "name": "totalSupply",
      "outputs": [
        {
          "internalType": "uint256",
          "name": "",
          "type": "uint256"
        }
      ],
      "stateMutability": "view",
      "type": "function"
    },
    {
      "inputs": [
        {
          "internalType": "uint256",
          "name": "snapshotId",
          "type": "uint256"
        }
      ],
      "name": "totalSupplyAt",
      "outputs": [
        {
          "internalType": "uint256",
          "name": "",
          "type": "uint256"
        }
      ],
      "stateMutability": "view",
      "type": "function"
    },
    {
      "inputs": [
        {
          "internalType": "address",
          "name": "to",
          "type": "address"
        },
        {
          "internalType": "uint256",
          "name": "amount",
          "type": "uint256"
        }
      ],
      "name": "transfer",
      "outputs": [
        {
          "internalType": "bool",
          "name": "",
          "type": "bool"
        }
      ],
      "stateMutability": "nonpayable",
      "type": "function"
    },
    {
      "inputs": [
        {
          "internalType": "address",
          "name": "from",
          "type": "address"
        },
        {
          "internalType": "address",
          "name": "to",
          "type": "address"
        },
        {
          "internalType": "uint256",
          "name": "amount",
          "type": "uint256"
        }
      ],
      "name": "transferFrom",
      "outputs": [
        {
          "internalType": "bool",
          "name": "",
          "type": "bool"
        }
      ],
      "stateMutability": "nonpayable",
      "type": "function"
    },
    {
      "inputs": [
        {
          "internalType": "address",
          "name": "newOwner",
          "type": "address"
        }
      ],
      "name": "transferOwnership",
      "outputs": [],
      "stateMutability": "nonpayable",
      "type": "function"
    }
  ],
  "bytecode": "0x6101406040523480156200001257600080fd5b506040518060400160405280600d81526020016c23b0b9ba3937b7902a37b5b2b760991b81525080604051806040016040528060018152602001603160f81b8152506040518060400160405280600d81526020016c23b0b9ba3937b7902a37b5b2b760991b8152506040518060400160405280600481526020016311d054d560e21b8152508160039080519060200190620000af92919062000490565b508051620000c590600490602084019062000490565b505050620000e2620000dc620001b060201b60201c565b620001b4565b815160208084019190912082518383012060e08290526101008190524660a0818152604080517f8b73c3c69bb8fe3d512ecc4cf759cc79239f7b179b0ffacaa9a75d522b39400f81880181905281830187905260608201869052608082019490945230818401528151808203909301835260c00190528051940193909320919290916080523060601b60c0526101205250620001aa935033925062000188915050601290565b6200019590600a6200059a565b620001a490620f424062000668565b62000206565b620006f7565b3390565b600980546001600160a01b038381166001600160a01b0319831681179093556040519116919082907f8be0079c531659141344cd1fd0a4f28419497f9722a3daafe3b4186f6b6457e090600090a35050565b6001600160a01b038216620002615760405162461bcd60e51b815260206004820152601f60248201527f45524332303a206d696e7420746f20746865207a65726f206164647265737300604482015260640160405180910390fd5b6200026f60008383620002fc565b806002600082825462000283919062000536565b90915550506001600160a01b03821660009081526020819052604081208054839290620002b290849062000536565b90915550506040518181526001600160a01b038316906000907fddf252ad1be2c89b69c2b068fc378daa952ba7f163c4a11628f55a4df523b3ef9060200160405180910390a35050565b620003148383836200031960201b6200083e1760201c565b505050565b620003318383836200031460201b6200085d1760201c565b6001600160a01b03831662000355576200034b8262000380565b62000314620003b8565b6001600160a01b0382166200036f576200034b8362000380565b6200037a8362000380565b62000314825b6001600160a01b03811660009081526005602090815260408083209183905290912054620003b59190620003ca565b620003ca565b50565b620003c86006620003af60025490565b565b6000620003d662000419565b905080620003e48462000437565b101562000314578254600180820185556000858152602080822090930193909355938401805494850181558252902090910155565b60006200043260086200048c60201b6200088b1760201c565b905090565b80546000906200044957506000919050565b815482906200045b906001906200068a565b815481106200047a57634e487b7160e01b600052603260045260246000fd5b90600052602060002001549050919050565b5490565b8280546200049e90620006a4565b90600052602060002090601f016020900481019282620004c257600085556200050d565b82601f10620004dd57805160ff19168380011785556200050d565b828001600101855582156200050d579182015b828111156200050d578251825591602001919060010190620004f0565b506200051b9291506200051f565b5090565b5b808211156200051b576000815560010162000520565b600082198211156200054c576200054c620006e1565b500190565b600181815b8085111562000592578160001904821115620005765762000576620006e1565b808516156200058457918102915b93841c939080029062000556565b509250929050565b6000620005ab60ff841683620005b2565b9392505050565b600082620005c35750600162000662565b81620005d25750600062000662565b8160018114620005eb5760028114620005f65762000616565b600191505062000662565b60ff8411156200060a576200060a620006e1565b50506001821b62000662565b5060208310610133831016604e8410600b84101617156200063b575081810a62000662565b62000647838362000551565b80600019048211156200065e576200065e620006e1565b0290505b92915050565b6000816000190483118215151615620006855762000685620006e1565b500290565b6000828210156200069f576200069f620006e1565b500390565b600181811c90821680620006b957607f821691505b60208210811415620006db57634e487b7160e01b600052602260045260246000fd5b50919050565b634e487b7160e01b600052601160045260246000fd5b60805160a05160c05160601c60e051610100516101205161194e6200074a6000396000610c9001526000610cdf01526000610cba01526000610c1301526000610c3d01526000610c67015261194e6000f3fe608060405234801561001057600080fd5b506004361061014d5760003560e01c8063715018a6116100c3578063981b24d01161007c578063981b24d01461029f578063a457c2d7146102b2578063a9059cbb146102c5578063d505accf146102d8578063dd62ed3e146102eb578063f2fde38b146102fe57600080fd5b8063715018a61461024657806379cc67901461024e5780637ecebe00146102615780638da5cb5b1461027457806395d89b411461028f5780639711715a1461029757600080fd5b80633644e515116101155780633644e515146101c757806339509351146101cf57806340c10f19146101e257806342966c68146101f75780634ee2cd7e1461020a57806370a082311461021d57600080fd5b806306fdde0314610152578063095ea7b31461017057806318160ddd1461019357806323b872dd146101a5578063313ce567146101b8575b600080fd5b61015a610311565b60405161016791906117f6565b60405180910390f35b61018361017e3660046117b5565b6103a3565b6040519015158152602001610167565b6002545b604051908152602001610167565b6101836101b3366004611709565b6103bd565b60405160128152602001610167565b6101976103e1565b6101836101dd3660046117b5565b6103f0565b6101f56101f03660046117b5565b610412565b005b6101f56102053660046117de565b610453565b6101976102183660046117b5565b610460565b61019761022b3660046116bd565b6001600160a01b031660009081526020819052604090205490565b6101f56104b9565b6101f561025c3660046117b5565b6104ef565b61019761026f3660046116bd565b610504565b6009546040516001600160a01b039091168152602001610167565b61015a610522565b6101f5610531565b6101976102ad3660046117de565b610563565b6101836102c03660046117b5565b61058e565b6101836102d33660046117b5565b610609565b6101f56102e6366004611744565b610617565b6101976102f93660046116d7565b61077b565b6101f561030c3660046116bd565b6107a6565b606060038054610320906118cd565b80601f016020809104026020016040519081016040528092919081815260200182805461034c906118cd565b80156103995780601f1061036e57610100808354040283529160200191610399565b820191906000526020600020905b81548152906001019060200180831161037c57829003601f168201915b5050505050905090565b6000336103b181858561088f565b60019150505b92915050565b6000336103cb8582856109b3565b6103d6858585610a2d565b506001949350505050565b60006103eb610c06565b905090565b6000336103b1818585610403838361077b565b61040d919061187e565b61088f565b6009546001600160a01b031633146104455760405162461bcd60e51b815260040161043c90611849565b60405180910390fd5b61044f8282610d2d565b5050565b61045d3382610e18565b50565b6001600160a01b038216600090815260056020526040812081908190610487908590610f72565b91509150816104ae576001600160a01b0385166000908152602081905260409020546104b0565b805b95945050505050565b6009546001600160a01b031633146104e35760405162461bcd60e51b815260040161043c90611849565b6104ed6000611077565b565b6104fa8233836109b3565b61044f8282610e18565b6001600160a01b0381166000908152600a60205260408120546103b7565b606060048054610320906118cd565b6009546001600160a01b0316331461055b5760405162461bcd60e51b815260040161043c90611849565b61045d6110c9565b6000806000610573846006610f72565b915091508161058457600254610586565b805b949350505050565b6000338161059c828661077b565b9050838110156105fc5760405162461bcd60e51b815260206004820152602560248201527f45524332303a2064656372656173656420616c6c6f77616e63652062656c6f77604482015264207a65726f60d81b606482015260840161043c565b6103d6828686840361088f565b6000336103b1818585610a2d565b834211156106675760405162461bcd60e51b815260206004820152601d60248201527f45524332305065726d69743a206578706972656420646561646c696e65000000604482015260640161043c565b60007f6e71edae12b1b97f4d1f60370fef10105fa2faae0126114a169c64845d6126c98888886106968c611123565b6040805160208101969096526001600160a01b0394851690860152929091166060840152608083015260a082015260c0810186905260e00160405160208183030381529060405280519060200120905060006106f18261114b565b9050600061070182878787611199565b9050896001600160a01b0316816001600160a01b0316146107645760405162461bcd60e51b815260206004820152601e60248201527f45524332305065726d69743a20696e76616c6964207369676e61747572650000604482015260640161043c565b61076f8a8a8a61088f565b50505050505050505050565b6001600160a01b03918216600090815260016020908152604080832093909416825291909152205490565b6009546001600160a01b031633146107d05760405162461bcd60e51b815260040161043c90611849565b6001600160a01b0381166108355760405162461bcd60e51b815260206004820152602660248201527f4f776e61626c653a206e6577206f776e657220697320746865207a65726f206160448201526564647265737360d01b606482015260840161043c565b61045d81611077565b6001600160a01b03831661086257610855826111c1565b61085d6111f3565b505050565b6001600160a01b03821661087957610855836111c1565b610882836111c1565b61085d826111c1565b5490565b6001600160a01b0383166108f15760405162461bcd60e51b8152602060048201526024808201527f45524332303a20617070726f76652066726f6d20746865207a65726f206164646044820152637265737360e01b606482015260840161043c565b6001600160a01b0382166109525760405162461bcd60e51b815260206004820152602260248201527f45524332303a20617070726f766520746f20746865207a65726f206164647265604482015261737360f01b606482015260840161043c565b6001600160a01b0383811660008181526001602090815260408083209487168084529482529182902085905590518481527f8c5be1e5ebec7d5bd14f71427d1e84f3dd0314c0f7b2291e5b200ac8c7c3b925910160405180910390a3505050565b60006109bf848461077b565b90506000198114610a275781811015610a1a5760405162461bcd60e51b815260206004820152601d60248201527f45524332303a20696e73756666696369656e7420616c6c6f77616e6365000000604482015260640161043c565b610a27848484840361088f565b50505050565b6001600160a01b038316610a915760405162461bcd60e51b815260206004820152602560248201527f45524332303a207472616e736665722066726f6d20746865207a65726f206164604482015264647265737360d81b606482015260840161043c565b6001600160a01b038216610af35760405162461bcd60e51b815260206004820152602360248201527f45524332303a207472616e7366657220746f20746865207a65726f206164647260448201526265737360e81b606482015260840161043c565b610afe838383611201565b6001600160a01b03831660009081526020819052604090205481811015610b765760405162461bcd60e51b815260206004820152602660248201527f45524332303a207472616e7366657220616d6f756e7420657863656564732062604482015265616c616e636560d01b606482015260840161043c565b6001600160a01b03808516600090815260208190526040808220858503905591851681529081208054849290610bad90849061187e565b92505081905550826001600160a01b0316846001600160a01b03167fddf252ad1be2c89b69c2b068fc378daa952ba7f163c4a11628f55a4df523b3ef84604051610bf991815260200190565b60405180910390a3610a27565b6000306001600160a01b037f000000000000000000000000000000000000000000000000000000000000000016148015610c5f57507f000000000000000000000000000000000000000000000000000000000000000046145b15610c8957507f000000000000000000000000000000000000000000000000000000000000000090565b50604080517f00000000000000000000000000000000000000000000000000000000000000006020808301919091527f0000000000000000000000000000000000000000000000000000000000000000828401527f000000000000000000000000000000000000000000000000000000000000000060608301524660808301523060a0808401919091528351808403909101815260c0909201909252805191012090565b6001600160a01b038216610d835760405162461bcd60e51b815260206004820152601f60248201527f45524332303a206d696e7420746f20746865207a65726f206164647265737300604482015260640161043c565b610d8f60008383611201565b8060026000828254610da1919061187e565b90915550506001600160a01b03821660009081526020819052604081208054839290610dce90849061187e565b90915550506040518181526001600160a01b038316906000907fddf252ad1be2c89b69c2b068fc378daa952ba7f163c4a11628f55a4df523b3ef9060200160405180910390a35050565b6001600160a01b038216610e785760405162461bcd60e51b815260206004820152602160248201527f45524332303a206275726e2066726f6d20746865207a65726f206164647265736044820152607360f81b606482015260840161043c565b610e8482600083611201565b6001600160a01b03821660009081526020819052604090205481811015610ef85760405162461bcd60e51b815260206004820152602260248201527f45524332303a206275726e20616d6f756e7420657863656564732062616c616e604482015261636560f01b606482015260840161043c565b6001600160a01b0383166000908152602081905260408120838303905560028054849290610f279084906118b6565b90915550506040518281526000906001600160a01b038516907fddf252ad1be2c89b69c2b068fc378daa952ba7f163c4a11628f55a4df523b3ef9060200160405180910390a3505050565b60008060008411610fbe5760405162461bcd60e51b815260206004820152601660248201527504552433230536e617073686f743a20696420697320360541b604482015260640161043c565b610fc661120c565b8411156110155760405162461bcd60e51b815260206004820152601d60248201527f4552433230536e617073686f743a206e6f6e6578697374656e74206964000000604482015260640161043c565b60006110218486611217565b845490915081141561103a576000809250925050611070565b600184600101828154811061105f57634e487b7160e01b600052603260045260246000fd5b906000526020600020015492509250505b9250929050565b600980546001600160a01b038381166001600160a01b0319831681179093556040519116919082907f8be0079c531659141344cd1fd0a4f28419497f9722a3daafe3b4186f6b6457e090600090a35050565b60006110d9600880546001019055565b60006110e361120c565b90507f8030e83b04d87bef53480e26263266d6ca66863aa8506aca6f2559d18aa1cb678160405161111691815260200190565b60405180910390a1919050565b6001600160a01b0381166000908152600a602052604090208054600181018255905b50919050565b60006103b7611158610c06565b8360405161190160f01b6020820152602281018390526042810182905260009060620160405160208183030381529060405280519060200120905092915050565b60008060006111aa878787876112f6565b915091506111b7816113e3565b5095945050505050565b6001600160a01b0381166000908152600560209081526040808320918390529091205461045d91906115e4565b6115e4565b6104ed60066111ee60025490565b61085d83838361083e565b60006103eb60085490565b8154600090611228575060006103b7565b82546000905b80821015611292576000611242838361162e565b90508486828154811061126557634e487b7160e01b600052603260045260246000fd5b9060005260206000200154111561127e5780915061128c565b61128981600161187e565b92505b5061122e565b6000821180156112d5575083856112aa6001856118b6565b815481106112c857634e487b7160e01b600052603260045260246000fd5b9060005260206000200154145b156112ee576112e56001836118b6565b925050506103b7565b5090506103b7565b6000807f7fffffffffffffffffffffffffffffff5d576e7357a4501ddfe92f46681b20a083111561132d57506000905060036113da565b8460ff16601b1415801561134557508460ff16601c14155b1561135657506000905060046113da565b6040805160008082526020820180845289905260ff881692820192909252606081018690526080810185905260019060a0016020604051602081039080840390855afa1580156113aa573d6000803e3d6000fd5b5050604051601f1901519150506001600160a01b0381166113d3576000600192509250506113da565b9150600090505b94509492505050565b600081600481111561140557634e487b7160e01b600052602160045260246000fd5b141561140e5750565b600181600481111561143057634e487b7160e01b600052602160045260246000fd5b141561147e5760405162461bcd60e51b815260206004820152601860248201527f45434453413a20696e76616c6964207369676e61747572650000000000000000604482015260640161043c565b60028160048111156114a057634e487b7160e01b600052602160045260246000fd5b14156114ee5760405162461bcd60e51b815260206004820152601f60248201527f45434453413a20696e76616c6964207369676e6174757265206c656e67746800604482015260640161043c565b600381600481111561151057634e487b7160e01b600052602160045260246000fd5b14156115695760405162461bcd60e51b815260206004820152602260248201527f45434453413a20696e76616c6964207369676e6174757265202773272076616c604482015261756560f01b606482015260840161043c565b600481600481111561158b57634e487b7160e01b600052602160045260246000fd5b141561045d5760405162461bcd60e51b815260206004820152602260248201527f45434453413a20696e76616c6964207369676e6174757265202776272076616c604482015261756560f01b606482015260840161043c565b60006115ee61120c565b9050806115fa84611650565b101561085d578254600180820185556000858152602080822090930193909355938401805494850181558252902090910155565b600061163d6002848418611896565b6116499084841661187e565b9392505050565b805460009061166157506000919050565b81548290611671906001906118b6565b8154811061168f57634e487b7160e01b600052603260045260246000fd5b90600052602060002001549050919050565b919050565b80356001600160a01b03811681146116a157600080fd5b6000602082840312156116ce578081fd5b611649826116a6565b600080604083850312156116e9578081fd5b6116f2836116a6565b9150611700602084016116a6565b90509250929050565b60008060006060848603121561171d578081fd5b611726846116a6565b9250611734602085016116a6565b9150604084013590509250925092565b600080600080600080600060e0888a03121561175e578283fd5b611767886116a6565b9650611775602089016116a6565b95506040880135945060608801359350608088013560ff81168114611798578384fd5b9699959850939692959460a0840135945060c09093013592915050565b600080604083850312156117c7578182fd5b6117d0836116a6565b946020939093013593505050565b6000602082840312156117ef578081fd5b5035919050565b6000602080835283518082850152825b8181101561182257858101830151858201604001528201611806565b818111156118335783604083870101525b50601f01601f1916929092016040019392505050565b6020808252818101527f4f776e61626c653a2063616c6c6572206973206e6f7420746865206f776e6572604082015260600190565b6000821982111561189157611891611902565b500190565b6000826118b157634e487b7160e01b81526012600452602481fd5b500490565b6000828210156118c8576118c8611902565b500390565b600181811c908216806118e157607f821691505b6020821081141561114557634e487b7160e01b600052602260045260246000fd5b634e487b7160e01b600052601160045260246000fdfea26469706673582212202df645a1779872f93fe253f792487460c3460c40a2a611017bf3d2e32282436964736f6c63430008040033",
  "linkReferences": {},
  "deployedLinkReferences": {}
}